:100000000C947C0E0C94AD0E0C94AD0E0C94AD0EB5
:100010000C94AD0E0C94AD0E0C94AD0E0C94AD0E74
:100020000C94AD0E0C94AD0E0C94AD0E0C94AD0E64
:100030000C94AD0E0C947DB10C94AD0E0C94AD0EE1
:100040000C94AD0E0C94B76F0C94AD0E0C94AD0ED9
:100050000C94AD0E0C94AD0E0C94F38F0C94EE63D7
:100060000C94AD0E0C94DC560C94AD0E0C94AD0EAD
:100070000C94AD0E0C94AD0E0C94AD0E0C94AD0E14
:100080000C94AD0E0C94AD0E0C94AD0E0C94AD0E04
:100090000C94AD0E0C94AD0E0C94AD0E0C94AD0EF4
:1000A0000C94AD0E0C94AD0E0C94AD0E0C94AD0EE4
:1000B0000C94AD0E0C94AD0E0C94AD0E0C94AD0ED4
:1000C0000C94AD0E0C94AD0E0C94AD0E0C94AD0EC4
:1000D0000C94AD0E0C94AD0E0C94AD0E0C94AD0EB4
:1000E0000C94AD0EC061C361B261B661BC61FA61CE
:1000F000C761CB61D161D561D961DF61E361E7613E
:10010000FA61ED61F161F5610A630F6314631E63C7
:100110002863A16332633A6342634C63566360634E
:100120006F637963A16383638D6397634F905E9080
:100130007A908990A390B290CC90D090D890084AB1
:10014000D73B3BCE016E84BCBFFDC12F3D6C7431EB
:100150009ABD56833DDA3D00C77F11BED9E4BB4C42
:100160003E916BAAAABE000000803F05A84CCDB20C
:10017000D44EB93836A9020C50B9918688083CA6ED
:10018000AAAA2ABE000000803F004E414E494E49B7
:100190005459494E46CDCCCC3D0AD7233C17B7D154
:1001A0003877CC2B329595E6241FB14F0A000020FA
:1001B000410000C84200401C4620BCBE4CCA1B0E79
:1001C0005AAEC59D740A00207A3A200020793A2060
:1001D0000020783A20004265640020002F0053443C
:1001E000207072696E74696E672062797465200090
:1001F0004E6F74205344207072696E74696E67008C
:100200002E0044656C6574696F6E206661696C656B
:10021000642C2046696C653A200046696C65206450
:10022000656C657465643A002E006F70656E2066BB
:1002300061696C65642C2046696C653A2000504900
:1002400044204175746F74756E652066696E6973BC
:10025000686564212050757420746865204B702C8B
:10026000204B6920616E64204B6420636F6E737451
:10027000616E747320696E746F20436F6E66696778
:1002800075726174696F6E2E680050494420417523
:10029000746F74756E65206661696C656421207485
:1002A000696D656F75740020403A006F6B20543A99
:1002B000006F6B20423A00504944204175746F74BE
:1002C000756E65206661696C6564212054656D708A
:1002D0006572617475726520746F6F2068696768F4
:1002E00000204B643A2000204B693A2000204B70DC
:1002F0003A200020436C6173696320504944200018
:100300002054753A2000204B753A2000206D61780A
:100310003A2000206D696E3A200020643A200020C7
:10032000626961733A20002200556E6B6E6F776EC2
:1003300020636F6D6D616E643A2022004368616EC8
:1003400067652066696C616D656E74007A5F6D61CA
:10035000783A20007A5F6D696E3A2000795F6D61AE
:10036000783A2000785F6D61783A2000205A3A0090
:1003700020593A0020436F756E7420583A200020AF
:10038000453A00205A3A0020593A00583A00464966
:10039000524D574152455F4E414D453A4D61726C49
:1003A000696E2056313B20537072696E7465722FEE
:1003B0006772626C206D617368757020666F722061
:1003C00067656E36204649524D574152455F55523A
:1003D0004C3A68747470733A2F2F67697468756249
:1003E0002E636F6D2F4572696B5A616C6D2F4D6175
:1003F000726C696E2F2050524F544F434F4C5F56D2
:10040000455253494F4E3A312E30204D41434849D1
:100410004E455F545950453A44656C7461426F745F
:100420002045585452554445525F434F554E543A17
:100430003120555549443A30303030303030302D4D
:10044000303030302D303030302D303030302D30B5
:1004500030303030303030303030300A0044656C6D
:100460007461426F74204F66662E0044656C74613F
:10047000426F742072656164792E00426564206465
:100480006F6E652E0020423A0020453A00543A0033
:100490004265642048656174696E672E0048656135
:1004A00074696E6720646F6E652E0020573A0020D5
:1004B000453A00543A0048656174696E672E2E2EE5
:1004C000002042403A0020403A00202F003A00200D
:1004D0005400202F0020423A00202F006F6B205440
:1004E0003A002569206D696E2C20256920736563AB
:1004F00000456E642066696C65206C697374004207
:100500006567696E2066696C65206C697374004E5E
:100510006F206D6F76652E00526573756D696E671D
:10052000207072696E74005761697420666F722062
:10053000757365722E2E2E000A00205A3A20002074
:10054000593A200020583A200042656400536C65F7
:1005500065702E2E2E002020506C616E6E657242EA
:10056000756666657242797465733A20002046723A
:100570006565204D656D6F72793A2000417072207B
:100580002032203230313700436F6D70696C656402
:100590003A2000286A63726F63686F6C6C2C204D80
:1005A000696E69204B6F7373656C2900207C204154
:1005B0007574686F723A20004170722020322032C8
:1005C0003031372031313A30353A353200204C6104
:1005D000737420557064617465643A2000312E3064
:1005E0002E30004D61726C696E0020536F66747717
:1005F0006172652052657365740020576174636889
:10060000646F67205265736574002042726F776E65
:10061000206F757420526573657400204578746589
:10062000726E616C20526573657400506F776572ED
:100630005570007374617274004D3834205820591D
:10064000205A2045006563686F3A00256920686F6D
:10065000757273202569206D696E75746573004429
:100660006F6E65207072696E74696E672066696C62
:10067000650053544F505045442E20005072696E0F
:100680007465722073746F70706564206475652082
:10069000746F206572726F72732E204669782074B1
:1006A0006865206572726F7220616E642075736573
:1006B000204D39393920746F2072657374617274FA
:1006C0002E202854656D706572617475726520699D
:1006D000732072657365742E2053657420697420CD
:1006E00061667465722072657374617274696E6795
:1006F00029006F6B004E6F204C696E65204E756D42
:10070000626572207769746820636865636B7375CE
:100710006D2C204C617374204C696E653A20004E3C
:100720006F20436865636B73756D2077697468200B
:100730006C696E65206E756D6265722C204C6173FC
:1007400074204C696E653A2000636865636B73754D
:100750006D206D69736D617463682C204C617374D6
:10076000204C696E653A20004C696E65204E756DAF
:10077000626572206973206E6F74204C61737420FF
:100780004C696E65204E756D6265722B312C204C64
:10079000617374204C696E653A20004572726F7205
:1007A0003A004D313130006572726F722077726994
:1007B00074696E6720746F2066696C6500656E648D
:1007C00073746F7073206869743A205A00205A3A23
:1007D00000656E6473746F7073206869743A205991
:1007E0000020593A00656E6473746F7073206869F5
:1007F000743A20580020583A00656E6473746F7024
:1008000073206869743A20006563686F3A00446F2A
:100810006E6520736176696E672066696C652E006F
:100820006F6B004D32390053657474696E677320C5
:1008300053746F726564002044002049002020201A
:100840004D33303120500050494420736574746931
:100850006E67733A00205A0020590020204D36362A
:1008600036205800456E6473746F702061646A7539
:100870007374656D656E7420286D6D293A00205A79
:100880000020590020204D323036205800486F6D2E
:1008900065206F666673657420286D6D293A0020A7
:1008A0004500205A002058002042002054002020FB
:1008B0004D323035205300416476616E63656420AB
:1008C0007661726961626C65733A20533D4D696E61
:1008D00020666565647261746520286D6D2F7329CB
:1008E0002C20543D4D696E2074726176656C2066D3
:1008F0006565647261746520286D6D2F73292C20E5
:10090000423D6D696E696D756D207365676D656ECD
:10091000742074696D6520286D73292C20583D6DF5
:100920006178696D756D205859206A65726B202851
:100930006D6D2F73292C20205A3D6D6178696D757E
:100940006D205A206A65726B20286D6D2F73292CDB
:100950002020453D6D6178696D756D2045206A6583
:10096000726B20286D6D2F73290020540020204DBC
:10097000323034205300416363656C657261746981
:100980006F6E3A20533D616363656C657261746993
:100990006F6E2C20543D72657472616374206163C4
:1009A00063656C65726174696F6E00204500205A42
:1009B0000020590020204D3230312058004D617800
:1009C000696D756D20416363656C65726174696FF3
:1009D0006E20286D6D2F7332293A00204500205A71
:1009E0000020590020204D3230332058004D6178CE
:1009F000696D756D20666565647261746573202824
:100A00006D6D2F73293A00204500205A00205900AF
:100A100020204D3932205800537465707320706562
:100A20007220756E69743A0053746F726564207336
:100A3000657474696E677320726574726965766532
:100A4000640048617264636F646564204465666134
:100A5000756C742053657474696E6773204C6F6194
:100A6000646564006563686F3A002200656E7175A5
:100A700065696E672022007C3C3E5E2B3D3F2F5B0C
:100A80005D3B2C2A225C000000A0420000A0420036
:100A90000043430000A0C20000A0C200000000000C
:100AA00000000000000000000043430000A04000E0
:100AB00000A0400000A040000020430000204300B0
:100AC0000043430101012200656E717565696E671F
:100AD00020220020746F6F206C6F6E672065787421
:100AE000727573696F6E2070726576656E74656479
:100AF0000020636F6C6420657874727573696F6E23
:100B00002070726576656E746564006563686F3A1F
:100B1000004D3234004D3233202573006175746FFF
:100B200025692E670053442063617264206F6B0057
:100B30006F70656E526F6F74206661696C656400DA
:100B4000766F6C756D652E696E6974206661696C6F
:100B5000656400534420696E6974206661696C00A5
:100B600057726974696E6720746F2066696C653AA4
:100B700020002E006F70656E206661696C65642CC4
:100B80002046696C653A20002E006F70656E206605
:100B900061696C65642C2046696C653A2000466981
:100BA0006C652073656C6563746564002053697AB5
:100BB000653A200046696C65206F70656E65643A21
:100BC00020002E006F70656E206661696C65642C74
:100BD0002046696C653A20004E6F77206672657317
:100BE000682066696C653A20004E6F7720646F69F3
:100BF0006E672066696C653A20002220706F730072
:100C00002220706172656E743A2200535542524F31
:100C10005554494E452043414C4C207461726765E0
:100C2000743A22006563686F3A00747279696E677E
:100C300020746F2063616C6C207375622D67636F25
:100C400064652066696C6573207769746820746FC9
:100C50006F206D616E79206C6576656C732E204D0A
:100C60004158206C6576656C2069733A0045727254
:100C70006F723A00436172642072656D6F766564CD
:100C8000004361726420696E73657274656400006C
:100C9000002100240027002A002D0030003300012D
:100CA000010000040107010A0100002200250028BC
:100CB000002B002E00310034000201000005010865
:100CC000010B01000020002300260029002C002F2A
:100CD00000320000010000030106010901050505BD
:100CE00005070508080808020202020A0A080804A3
:100CF00004040401010101010101010303030303D1
:100D0000030303040707070C0C0C0C0C0C0C0C025F
:100D100002020206060606060606060B0B0B0B0B66
:100D20000B0B0B010210202008081020401020405F
:100D3000800201020108040201010204081020409F
:100D400080804020100804020180040201804020BD
:100D500010080402010804020101020408102040E6
:100D600080010204081020408000000A0B02090CD8
:100D70000D0E080703040100000000000000000041
:100D80000000000000000000000000000000000063
:100D90000000000000121110000000000000000020
:100DA000000000000000000000000000000000241F
:100DB000F4D43050C38E20C2A24017828B7011121F
:100DC0007A910D816CD90AA861E108C7586607615C
:100DD0005143061E4B5D05C145A7041A4111040984
:100DE0003D9803713931034036DB0265339102D4FB
:100DF000305402802E1D02632CEE01752AC501B00D
:100E000028A001102781018F2564012B244B01E0CC
:100E1000223401AC211F018D200D01801FFC0084B4
:100E20001EED00971DDF00B81CD200E61BC6002097
:100E30001BBC00641AB200B219A8000A19A0006A0B
:100E4000189900D117910040178B00B51684003116
:100E5000167E00B31579003A157300C7146F005859
:100E6000146A00EE1366008813630025135E00C742
:100E7000125B006C12570015125400C11151007022
:100E8000114F0021114B00D61049008D104700462C
:100E900010440002104200C00F4000800F3E00428C
:100EA0000F3C00060F3B00CB0E3800930E37005C62
:100EB0000E3500270E3400F30D3200C10D310090C5
:100EC0000D3000600D2E00320D2D00050D2C00D9C7
:100ED0000C2B00AE0C2900850C29005C0C2700357A
:100EE0000C27000E0C2600E80B2400C40B2400A0E5
:100EF0000B23007D0B23005A0B2100390B21001816
:100F00000B2000F80A1F00D90A1E00BB0A1E009D14
:100F10000A1D00800A1D00630A1C00470A1B002CE2
:100F20000A1B00110A1A00F7091A00DD091900C48A
:100F3000091900AB091900920917007B0918006311
:100F40000917004C09160036091600200916000A78
:100F5000091500F5081500E0081400CC081400B8C5
:100F6000081400A4081400900813007D0812006BF8
:100F70000813005808120046081200340811002314
:100F80000811001208110001081100F0071000E01C
:100F9000071000D0071000C0071000B0070F00A115
:100FA00007100091070E0083070F0074070F0065FC
:100FB000070E0057070E0049070E003B070D002ED5
:100FC000070E0020070D0013070D0006070D00F99E
:100FD000060C00ED060D00E0060C00D4060C00C85F
:100FE000060C00BC060C00B0060C00A4060B009911
:100FF000060C008D060B0082060B0077060B006CBA
:10100000060B0061060A0057060B004C060A004258
:10101000060A0038060A002E060A0024060A001AEC
:10102000060A001006090007060A00FD050900F47B
:10103000050900EB050900E2050900D9050900D002
:10104000050900C7050900BE050900B5050800AD82
:10105000050800A50509009C050800940508008CFA
:10106000050800840508007C050800740508006C6C
:10107000050700650508005D050700560508004ED8
:10108000050700470507004005080038050700313F
:101090000507002A050700230507001C05060016A2
:1010A0000507000F0507000805060002050700FBFD
:1010B000040600F5040700EE040600E8040600E25A
:1010C000040700DB040600D5040600CF040600C9AF
:1010D000040600C3040600BD040600B7040600B100
:1010E000040500AC040600A6040600A00405009B4D
:1010F00004060095040500900406008A0405008596
:10110000040500800406007A0405007504050070DB
:101110000405006B04050066040500610405005C1D
:1011200004050057040500520405004D040500485D
:10113000040500430405003E0404003A040500359C
:10114000040500300404002C0405002704040023D7
:101150000405001E0404001A04040016040500110E
:101160000404000D04040009040500040404000044
:10117000040400FC030400F8030400F4030400F07A
:10118000030400EC030400E8030400E4030400E0AB
:10119000030400DC030400D8030400D4030400D0DB
:1011A000030400CC030400C8030300C503030024A8
:1011B000F404D9201BC40C5C0E9804C4095F0265BA
:1011C000077101F405F900FB04B30048048700C16E
:1011D0000369005803550003034500BE023A00842A
:1011E00002310053022A002902250004022000E4F3
:1011F000011C00C8011900AF0117009801140084F8
:10120000011300710110006101100051010E004333
:10121000010D0036010B002B010B0020010B001506
:101220000109000C01090003010800FB000800F39C
:10123000000800EB000700E4000600DE000600D80E
:10124000000600D2000600CC000500C7000500C261
:10125000000500BD000400B9000400B5000400B1A1
:10126000000400AD000400A9000400A5000300A2D2
:101270000003009F0004009B0003009800030095FA
:1012800000020093000300900003008D0002008B19
:101290000003008800020086000200840003008131
:1012A0000002007F0002007D0002007B0002007946
:1012B0000002007700010076000200740002007254
:1012C000000100710002006F0002006D0001006C5F
:1012D0000002006A00010069000200670001006668
:1012E000000100650001006400020062000100616D
:1012F000000100600001005F0002005D0001005C71
:101300000001005B0001005A000100590001005873
:101310000001005700010056000100550001005473
:101320000001005300000053000100520001005171
:10133000000100500001004F0001004E0000004E6F
:101340000001004D0001004C0001004B0000004B6B
:101350000001004A00010049000100480000004867
:101360000001004700010046000000460001004562
:10137000000000450001004400010043000000435C
:101380000001004200000042000100410000004155
:10139000000100400001003F0000003F0001003E4E
:1013A0000000003E0001003D0000003D0001003C47
:1013B0000000003C0000003C0001003B0000003B3E
:1013C0000001003A0000003A000100390000003935
:1013D000000100380000003800000038000100372C
:1013E0000000003700010036000000360000003623
:1013F0000001003500000035000000350001003418
:10140000000000340000003400010033000000330D
:101410000000003300010032000000320000003202
:1014200000010031000000310000003100010030F7
:1014300000000030000000300001002F0000002FED
:101440000000002F0000002F0001002E0000002EE1
:101450000000002E0001002D0000002D0000002DD6
:101460000000002D0001002C0000002C0000002CCA
:101470000000002C0001002B0000002B0000002BBE
:101480000000002B0001002A0000002A0000002AB2
:101490000000002A000100290000002900000029A6
:1014A0000000002900000029000100280000002899
:1014B000000000280000002800000028000100278C
:1014C0000000002700000027000000270000002780
:1014D0000001002600000026000000260000002673
:1014E0000000002600010025000000250000002566
:1014F0000000002500000025000000250001002458
:10150000000000240000002400000024000000244B
:10151000000100230000002300000023000000233E
:10152000000000230000002300000023000100222F
:101530000000002200000022000000220000002223
:101540000000002200010021000000210000002115
:101550000000002100000021000000210000002107
:1015600000010020000000200000002000000020FA
:1015700000000020000000200000002000000020EB
:101580000001001F0000001F0000001F0000001FDE
:101590000000001F0000001F0000001F0001001ECF
:1015A0000000001E0000001E0000001E00000020C1
:1015B0002D20496E76616C6964206578747275645B
:1015C0006572206E756D6265722021004D6F7665C3
:1015D0002061786973004D3830005377697463680F
:1015E00020706F776572206F6E004D383100537731
:1015F0006974636820706F776572206F6666004358
:101600006F6F6C646F776E005072656865617420EF
:10161000414253005072656865617420504C41002E
:10162000473238004175746F20686F6D65004D3822
:10163000340044697361626C652073746570706511
:101640007273004D61696E00580059005A00457868
:1016500074727564657200457874727564657200A1
:101660004D6F7665205A004D6F76652059004D6F9D
:1016700076652058004D6F76652061786973004D5E
:101680006F766520302E316D6D004D6F766520319F
:101690006D6D004D6F76652031306D6D0050726557
:1016A0007061726500526573746F7265206661695E
:1016B0006C73616665004C6F6164206D656D6F725F
:1016C000790053746F7265206D656D6F7279004D8E
:1016D0006F74696F6E0054656D70657261747572B8
:1016E00065004D61696E0053746F7265206D656DA4
:1016F0006F72790042656400426564004E6F7A7AC9
:101700006C65004E6F7A7A6C650046616E2073706E
:101710006565640046616E2073706565640054659C
:101720006D70657261747572650045737465707370
:101730002F6D6D004573746570732F6D6D005A7356
:10174000746570732F6D6D005A73746570732F6DAF
:101750006D005973746570732F6D6D0059737465E6
:1017600070732F6D6D005873746570732F6D6D00FD
:101770005873746570732F6D6D00412D72657472AE
:1017800061637400412D7265747261637400416D10
:101790006178206500416D6178206500416D617858
:1017A000207A00416D6178207A00416D617820795E
:1017B00000416D6178207900416D617820780041A9
:1017C0006D61782078005654726176206D696E00E4
:1017D0005654726176206D696E00566D696E0056C2
:1017E0006D696E00566D6178206500566D617820D8
:1017F0006500566D6178207A00566D6178207A0018
:10180000566D6178207900566D6178207900566DAB
:101810006178207800566D617820780056652D6AD1
:1018200065726B0056652D6A65726B00567A2D6A7B
:1018300065726B00567A2D6A65726B005678792D49
:101840006A65726B005678792D6A65726B00416328
:1018500063656C00416363656C005A204F66667374
:101860006574005A204F666673657400436F6E742A
:10187000726F6C0070012C0190012701B0012201F0
:10188000C0011D01F00118011002130130020E0108
:101890006002090190020401C002FF000003FA0087
:1018A0004003F5008003F000D003EB002004E600C5
:1018B0007004E100E004DC004005D700C005D20060
:1018C0004006CD00D006C8008007C3003008BE0027
:1018D000F008B900C009B400B00AAF00B00BAA000C
:1018E000D00CA500000EA000500F9B00C010960069
:1018F0005012910000148C00C0158700B0178200B0
:10190000B0197D00D01B7800001E730040206E00CF
:1019100090226900F024640040275F0090295A005B
:10192000E02B5500102E500020304B0010324600A6
:10193000E033410090353C001037370070383200FA
:10194000A0392D00B03A2800A03B2300603C1E00C7
:10195000103D1900903D1400103E0F00703E0A002B
:10196000C03E0500003F00004572723A204D4158CC
:1019700054454D50003A2045787472756465722064
:101980007377697463686564206F66662E204D41C5
:101990005854454D502074726967676572656420BC
:1019A00021004572723A204D494E54454D50003A3F
:1019B0002045787472756465722073776974636802
:1019C0006564206F66662E204D494E54454D50206B
:1019D0007472696767657265642021004572723AA6
:1019E000204D415854454D50204245440054656DAA
:1019F00070657261747572652068656174656420D4
:101A0000626564207377697463686564206F6666D5
:101A10002E204D415854454D5020747269676765BA
:101A2000726564202121004572726F723A002D2D7B
:101A30003A2D2D002D2D2D0053440020590001205A
:101A40000001200050726568656174204142532096
:101A5000636F6E66005072656865617420504C411A
:101A600020636F6E66005049442D43005049442D59
:101A700043005049442D44005049442D44005049EE
:101A8000442D49005049442D49005049442D5000EF
:101A90005049442D5000200220466163740020020A
:101AA0002046616374002002204D617800200220EE
:101AB0004D6178002002204D696E002002204D69A2
:101AC0006E004F6666004F6E20004F6666004F6ED8
:101AD000200046616E2073706565640046616E206B
:101AE00073706565640042656400426564004E6F12
:101AF0007A7A6C65004E6F7A7A6C6500436F6E740B
:101B0000726F6C0053746F7265206D656D6F7279C2
:101B10000042656400426564004E6F7A7A6C65002D
:101B20004E6F7A7A6C650046616E207370656564ED
:101B30000046616E2073706565640054656D706564
:101B4000726174757265004D383420582059205ADE
:101B50002045004E6F205344206361726400507230
:101B6000696E742066726F6D2053440053746F70F9
:101B7000207072696E7400526573756D65207072A5
:101B8000696E74005061757365207072696E7400BF
:101B9000436F6E74726F6C00507265706172650095
:101BA00054756E6500496E666F2073637265656E6D
:101BB000004D363030004368616E67652066696CA1
:101BC000616D656E7400466C6F7700466C6F7700D0
:101BD00046616E2073706565640046616E207370A7
:101BE0006565640042656400426564004E6F7A7A00
:101BF0006C65004E6F7A7A6C6500537065656400A1
:101C00005370656564004D61696E00526573656E61
:101C1000643A20006F6B004B494C4C45442E200029
:101C20005072696E7465722068616C7465642E20F0
:101C30006B696C6C28292063616C6C6564210053AE
:101C4000544F505045442E20005072696E74657296
:101C50002073746F707065642064756520746F20E4
:101C60006572726F72732E204669782074686520E1
:101C70006572726F7220616E6420757365204D39D4
:101C8000393920746F20726573746172742E202844
:101C900054656D7065726174757265206973207228
:101CA000657365742E2053657420697420616674B1
:101CB00065722072657374617274696E6729004D74
:101CC0003234004D32332025730043616E6E6F74E1
:101CD00020656E746572207375626469723A2000C3
:101CE000052E2E004D61696E00024175746F74659A
:101CF0006D70000052BE31BE11241FBECFEFD1E285
:101D0000DEBFCDBF00E00CBF14E0A0E0B2E0E4E134
:101D1000F5E901E00BBF02C007900D92AA36B107AA
:101D2000D9F723E1AAE6B4E001C01D92AC33B207B3
:101D3000E1F71EE0CBE7DEE000E006C021970109F5
:101D4000802FFE010E940FCACA37D10780E0080722
:101D5000A9F70E94DDB40C9479CA0C9400002F926C
:101D60003F924F925F926F927F928F929F92AF922B
:101D7000BF92CF92DF92EF92FF920F931F93CF9378
:101D8000DF93CDB7DEB7CA57D1090FB6F894DEBFDF
:101D90000FBECDBF87E40E948936F82E882311F448
:101DA0000C9450180E94AF360E94A1C76C31710587
:101DB00009F4F1C39CF46230710509F493C324F46F
:101DC00077FF3FC00C94542F6330710509F492C320
:101DD0006430710509F499C30C94542F6A35710568
:101DE00011F40C94EB170CF56D31710509F480C5F5
:101DF0006E31710511F00C94542F0E9446350E94EB
:101E0000996F0E94AB3580E090E0A6E9B4E480933E
:101E1000260290932702A0932802B09329020E94E1
:101E2000D435E9E4F5E00C948D176B35710511F4A8
:101E30000C94EF176C35710511F40C94F4170C9495
:101E4000542F8091010681114DC30E948CA981EC11
:101E500097E00E9498A50E94E2636093220D709320
:101E6000230D8093240D9093250D9E012F5F3F4FEE
:101E7000790112EFC12E12E1D12E01EC17E0D80149
:101E80006D917D918D919D918D01F6012191319101
:101E9000419151916F010E945CC6D7016D937D9372
:101EA0008D939D937D01B7E0013D1B0741F769814B
:101EB0007A818B819C818D809E80AF80B884C9841B
:101EC000DA84EB84FC849B01AC010E9430BF2B01BF
:101ED0003C01A5019401C501B4010E9430BF9B01E2
:101EE000AC01C301B2010E945DC64B015C01A701B8
:101EF0009601C701B6010E9430BF9B01AC01C5012C
:101F0000B4010E945DC60E9473C96B017C012DEB78
:101F100037E346E855E30E94FAC287FF11C0CD843B
:101F2000DE84EF84F88820E030E0A901C701B60123
:101F30000E9488C8181624F0F7FAF094F7F8F09485
:101F40002DEB37E346E855E3C701B6010E94FAC21C
:101F500087FF02C00C94113320E030E84BEB55E4CE
:101F6000C701B6010E9430BF20912602309127029E
:101F700040912802509129020E9439C76B017C01CF
:101F80008091640290916502BC01990F880B990BB6
:101F90000E9400C39B01AC01C701B6010E9439C772
:101FA00020E030E040E253E40E9430BF0E94A1C72D
:101FB0001B01161617061CF022242394312CE1E095
:101FC000F0E02196FFAFEEAF21974101032C000C0A
:101FD000AA08BB0867968CAE9DAEAEAEBFAE679743
:101FE0002196AEACBFAC2197B501BB0C880B990B09
:101FF0000E9400C36B017C0167966CAD7DAD8EAD18
:102000009FAD67970E9400C39B01AC01C701B60159
:102010000E9439C72B013C01A1ECEA2EA7E0FA2E61
:102020009E012F5F3F4F690102EF12E1D8018D90B1
:102030009D90AD90BD908D01F6016191719181915E
:1020400091916F01A30192010E9430BF9B01AC01ED
:10205000C501B4010E945DC6D7016D937D938D9338
:102060009D937D01B3E102301B0701F781EC97E0FE
:102070000E944BA42BEA3AEA4AEB51E46091C10773
:102080007091C2078091C3079091C4070E9439C71D
:102090004B015C012EE93FEE4FE350E40E9488C8FB
:1020A00018169CF02EE93FEE4FE350ECC501B40149
:1020B0000E94FAC287FF11C0EEE98E2EEFEE9E2E2F
:1020C000EFE3AE2EE0ECBE2E08C0FEE98F2EFFEE51
:1020D0009F2EFFE3AF2EF0E4BF2E2BEA3AEA4AEB45
:1020E00051E46091C5077091C6078091C707909130
:1020F000C8070E9439C76B017C012EE93FEE4FE310
:1021000050E40E9488C818169CF02EE93FEE4FE379
:1021100050ECC701B6010E94FAC287FF11C06EE9F8
:10212000C62E6FEED62E6FE3E62E60ECF62E08C0BC
:102130007EE9C72E7FEED72E7FE3E72E70E4F72EE1
:10214000C501B4010E94D2C70E94A1C76BAF7CAF8A
:102150008DAF9EAFC701B6010E94D2C70E94A1C732
:102160002B013C01EBADFCADBF01FF0F880B990BC0
:102170000E9400C39B01AC01C501B4010E945CC672
:102180002D966CAF7DAF8EAF9FAF2D97B201052C12
:10219000000C880B990B0E9400C39B01AC01C70186
:1021A000B6010E945CC625966CAF7DAF8EAF9FAF27
:1021B00025972BAD3CAD2D5F3F4F61963FAF2EAFC6
:1021C0006197A2014D5F5F4F27965FAF4EAF279794
:1021D00082010C5F1F4F8BAD9CAD04969CAF8BAF03
:1021E00025962CAD3DAD4EAD5FAD259760E070E01E
:1021F00080E89FE30E945CC66B017C012D962CADAC
:102200003DAD4EAD5FAD2D9760E070E080E89FE39F
:102210000E945CC64B015C0127E06196EEADFFAD0C
:1022200061972E9FD0012F9FB00D11242F96BFAF25
:10223000AEAF2F97FD0127964EAD5FAD2797E40F08
:10224000F51FEE0FFF1FEE0FFF1FE259FB4F20811E
:10225000318142815381C701B6010E9430BF2B01F9
:102260003C012F96EEADFFAD2F97E00FF11FEE0F63
:10227000FF1FEE0FFF1FE259FB4F2081318142818A
:10228000538125966CAD7DAD8EAD9FAD25970E9497
:1022900030BF9B01AC01C301B2010E945DC69B012E
:1022A000AC01C501B4010E9430BF4B015C01A7E045
:1022B0008BAD9CADA89F2001A99F500C112427969F
:1022C000EEADFFAD2797E40DF51DEE0FFF1FEE0FEE
:1022D000FF1FE259FB4F2081318142815381C701A9
:1022E000B6010E9430BF6B017C01400E511EF2010D
:1022F000EE0FFF1FEE0FFF1FE259FB4F20813181D0
:102300004281538125966CAD7DAD8EAD9FAD2597F5
:102310000E9430BF9B01AC01C701B6010E945DC69F
:102320009B01AC012D966CAD7DAD8EAD9FAD2D9713
:102330000E9430BF9B01AC01C501B4010E945DC683
:102340006B017C012091260D3091270D4091280DC5
:102350005091290D0E945DC62B013C016093260D12
:102360007093270D8093280D9093290D20912A0DAD
:1023700030912B0D40912C0D50912D0DC701B601C0
:102380000E945DC66BAF7CAF8DAF9EAF60932A0D90
:1023900070932B0D80932C0D90932D0D20912E0D6D
:1023A00030912F0D4091300D5091310DC701B60184
:1023B0000E945DC625966CAF7DAF8EAF9FAF25970F
:1023C00060932E0D70932F0D8093300D9093310DEF
:1023D0006091640270916502072E000C880B990BC6
:1023E0000E9400C3209126023091270240912802CA
:1023F000509129020E9430BF20E030E040E752E4D3
:102400000E9439C720E030E048EC52E40E9439C70E
:102410004B015C01A3E7B5E0BF93AF935DECC52E24
:1024200057E0D52E2596ECACFDAC0EAD1FAD259733
:102430002BAD3CAD4DAD5EADC301B2010E94F94A7A
:1024400021962EAD3FAD21972F5F3F4F21963FAF95
:102450002EAF21970F900F90221633060CF0C0CDAF
:102460008091C1079091C207A091C307B091C407A2
:102470008093F2129093F312A093F412B093F5129A
:102480008091C5079091C607A091C707B091C80772
:102490008093F6129093F712A093F812B093F9126A
:1024A0008091C9079091CA07A091CB07B091CC0742
:1024B0008093FA129093FB12A093FC12B093FD123A
:1024C0008091CD079091CE07A091CF07B091D00712
:1024D0008093FE129093FF12A0930013B093011308
:1024E0000C94113380910106811104C00E9411AA3D
:1024F00081E007C080910106811107C00E9411AAE6
:1025000080E00E942AA60C9411338DE495E00E948D
:10251000946880E50E948936882339F00E94AF369E
:102520000E94A6C76B017C0103C0C12CD12C76018F
:1025300083E50E948936882361F00E94AF3620E04F
:1025400030E04AE754E40E9430BF0E94A6C76B0106
:102550007C010E94996F0E94E263C60ED71EE81E9E
:10256000F91E0E94E2636093220D7093230D809305
:10257000240D9093250D0E94E2636C157D058E0558
:102580009F0510F00C94542F0E947B6D0E94B5A201
:102590000E94B868F0CF80E090E0A0E8BFE38093AD
:1025A0006E0290936F02A0937002B093710210922A
:1025B00072021092730210927402109275021092BD
:1025C000760210927702109278021092790210929D
:1025D0007A0210927B0210927C0210927D0280930C
:1025E0007E0290937F02A0938002B09381021092AA
:1025F000820210928302109284021092850210923D
:10260000860210928702109288021092890210921C
:102610008A0210928B0210928C0210928D0280938B
:102620008E0290938F02A0939002B09391020E9429
:102630008E338091260290912702A0912802B091BA
:1026400029028093340590933505A0933605B09305
:1026500037058091640290916502909333058093D1
:10266000320584E690E090936502809364020E94B4
:10267000E2636093220D7093230D8093240D909359
:10268000250D81E0809309028091F2129091F3125E
:10269000A091F412B091F5128093C1079093C207F4
:1026A000A093C307B093C4078091F6129091F712DC
:1026B000A091F812B091F9128093C5079093C607C4
:1026C000A093C707B093C8078091FA129091FB12AC
:1026D000A091FC12B091FD128093C9079093CA0794
:1026E000A093CB07B093CC078091FE129091FF127C
:1026F000A0910013B09101138093CD079093CE0762
:10270000A093CF07B093D007109226021092270211
:1027100010922802109229021092F2121092F312D3
:102720001092F4121092F5121092F6121092F71203
:102730001092F8121092F9121092FA121092FB12E3
:102740001092FC121092FD12E12CF12C8701A801CD
:102750009701C801B7010E941FAF80E090E4A2E199
:10276000B4E48093C1079093C207A093C307B093CA
:10277000C4078093C5079093C607A093C707B0937B
:10278000C8078093C9079093CA07A093CB07B0935B
:10279000CC0786E696EEA1E0B5E4809326029093FE
:1027A0002702A0932802B093290283E795E09F9324
:1027B0008F931CE5812E1FE8912E1AE0A12E12E4C2
:1027C000B12E0DECC02E07E0D02EE12C10E4F12E3E
:1027D00002E114E4A8019701C801B7010E94F94A77
:1027E0000E94996F0E9471768091C1079091C207F3
:1027F000A091C307B091C4078093F2129093F31293
:10280000A093F412B093F5128091C5079091C6077A
:10281000A091C707B091C8078093F6129093F71262
:10282000A093F812B093F9128091C9079091CA074A
:10283000A091CB07B091CC078093FA129093FB1232
:10284000A093FC12B093FD1280E090E00E948057AC
:1028500081E090E00E94805782E090E00E948057E3
:1028600082EF92E10E944BA4E0902E0DF0902F0D8C
:102870000091300D1091310D20912A0D30912B0DCA
:1028800040912C0D50912D0D6091260D7091270DCA
:102890008091280D9091290D0E941FAF109209027E
:1028A0008091340590913505A0913605B09137059A
:1028B0008093260290932702A0932802B0932902C6
:1028C0008091320590913305909365028093640264
:1028D0000E94E2636093220D7093230D8093240D78
:1028E0009093250D0E9471760F900F900C94542FA9
:1028F0000E94996F80E090E0A0E8BFE380936E02B1
:1029000090936F02A0937002B093710210927202C2
:102910001092730210927402109275021092760255
:1029200010927702109278021092790210927A0235
:1029300010927B0210927C0210927D0280937E02A4
:1029400090937F02A0938002B09381021092820242
:1029500010928302109284021092850210928602D5
:1029600010928702109288021092890210928A02B5
:1029700010928B0210928C0210928D0280938E0224
:1029800090938F02A0939002B09391020E948E3395
:102990000E9446350E94AB3580E090E0A6E9B4E4A1
:1029A0008093260290932702A0932802B0932902D5
:1029B0008AE50E948936882379F00E94AF3626E6A0
:1029C00036E646E450E40E945CC62D966CAF7DAFBF
:1029D0008EAF9FAF2D970DC0B6E68B2E982CB6E428
:1029E000AB2EB0ECBB2E2D968CAE9DAEAEAEBFAE78
:1029F0002D971CAE1BAE21961FAE1EAE2197ABAC21
:102A0000BCACB501BB0C880B990B0E9400C32BEA30
:102A10003AEA4AEB51E40E9430BF20E030E04CE853
:102A200052E40E945CC66B017C01A0FC10C02FEF39
:102A30003FEF23963FAF2EAF23974FEF5FEF2F96D9
:102A40005FAF4EAF2F97A6E02A2E312C0EC081E04B
:102A500090E023969FAF8EAF2397A7E0B0E02F962C
:102A6000BFAFAEAF2F97212C312C8CE12396AEACAB
:102A7000BFAC23978A9D40018B9D900C11246996D1
:102A80009FAE8EAE699727E0229DC001239D900DD9
:102A900011248BAC9CAC880D991D5C01AA0CBB1C4D
:102AA000AA0CBB1C6596BFAEAEAE659727961FAE4F
:102AB0001EAE27972F96AEACBFAC2F972A143B04BF
:102AC00009F47FC1B101032C000C880B990B0E9403
:102AD00000C32BEA3AEA4AEB51E40E9430BF20E0FF
:102AE00030E04CE852E40E945CC64B015C019B0163
:102AF000AC010E9430BF2B013C01A7019601C70128
:102B0000B6010E9430BF9B01AC01C301B2010E941B
:102B10005DC60E9473C920E030E040EA52E40E94A2
:102B200088C818160CF438C121962EAD3FAD2197F8
:102B3000232B79F020E030E040EA50E46091FA1273
:102B40007091FB128091FC129091FD120E945DC663
:102B500004C060E070E088E492E42091F6123091C5
:102B6000F7124091F8125091F9126F962CAF3DAFC9
:102B70004EAF5FAF6F974090F2125090F31260909B
:102B8000F4127090F51220912602309127024091A4
:102B900028025091290263962CAF3DAF4EAF5FAF34
:102BA000639720E030E04AEF55E42093260230930B
:102BB000270240932802509329024092C107509265
:102BC000C2076092C3077092C4076F962CAD3DADEB
:102BD0004EAD5FAD6F972093C5073093C607409306
:102BE000C7075093C8076093C9077093CA078093BB
:102BF000CB079093CC070E940FA50E94996F40903D
:102C0000FA125090FB126090FC127090FD1280E05E
:102C100090E0AAEFB5E48093260290932702A09358
:102C20002802B093290220E030E040EC5FE3C501C8
:102C3000B4010E945DC66093C1077093C207809380
:102C4000C3079093C40726E636E642EC51E4C70179
:102C5000B6010E945CC66093C5077093C607809357
:102C6000C7079093C8074092C9075092CA0760925D
:102C7000CB077092CC070E940FA50E94996F6396B4
:102C80002CAD3DAD4EAD5FAD6397209326023093E2
:102C9000270240932802509329020E94D435409085
:102CA000FA125090FB126090FC127090FD12E6ED4B
:102CB000F1E08491882341F09091C00095FFFCCF12
:102CC0008093C6003196F5CFE1EDF1E08491882341
:102CD00041F09091C00095FFFCCF8093C6003196E3
:102CE000F5CF42E0C501B4010E9499AEECECF1E0F1
:102CF0008491882341F09091C00095FFFCCF809390
:102D0000C6003196F5CF42E0C701B6010E9499AEE8
:102D1000E7ECF1E08491882341F09091C00095FFA9
:102D2000FCCF8093C6003196F5CF42E0C301B201DB
:102D30000E9499AEE5ECF1E08491882341F09091F6
:102D4000C00095FFFCCF8093C6003196F5CF279643
:102D50000EAD1FAD279765968EAC9FAC6597080D9D
:102D6000191D02591B4F2D962CAD3DAD4EAD5FADDB
:102D70002D97C301B2010E945DC6D8016D937D936A
:102D80008D939C9313972196EEADFFAD21973196CD
:102D90002196FFAFEEAF219723968EAC9FAC239781
:102DA000280C391C2796AEACBFAC279769968EAC21
:102DB0009FAC6997A80CB91C2796BFAEAEAE2797FB
:102DC00079CE2BAD3CAD2F5F3F4F3CAF2BAF2730C3
:102DD000310509F014CE0E94863500E010E0E12CA8
:102DE000F12C83E0882E912C801A910A9CAE8BAE38
:102DF000180123E0220E311CC701800F911F039799
:102E0000C8F181E0023011050CF480E0C82ED12C0D
:102E100081E032E0E316F1040CF480E0A82EB12C3E
:102E20009601A5016BAD7CADE3E08E2E912C8E1842
:102E30009F08C4010E94A433662477246A187B0883
:102E40009601A3016BAD7CAD270183E0480E511CB8
:102E5000C2010E94A433D194C194D1089601A50166
:102E6000B101C4010E94A4339601A301B101C201C2
:102E70000E94A4339FEFE91AF90AA4E0EA16F104CC
:102E800009F0BACF0F5F1F4F0430110509F0A7CF2B
:102E90009EE6E92E94E0F92E2AEDC22E21E0D22EF4
:102EA0003AE0B32E00E010E0F701E00FF11F60817F
:102EB00071818281938142E00E9499AEF6018491F2
:102EC000EAEDF1E0882349F09091C00095FFFCCF36
:102ED0008093C60031968491F5CF045E1F4F043C69
:102EE000110511F78091C00085FFFCCFB092C6009C
:102EF000F4E0EF0EF11C2AE8E21624E0F20691F667
:102F00000E94996F0E94C1340C94542F9091C0007C
:102F100095FFFCCF8093C600319684918111F6CF46
:102F2000E4E4F5E08491882341F09091C00095FF9E
:102F3000FCCF8093C6003196F5CF6091F21270916C
:102F4000F3128091F4129091F51242E00E9499AE32
:102F5000EFE3F5E08491882341F09091C00095FF64
:102F6000FCCF8093C6003196F5CF6091F612709138
:102F7000F7128091F8129091F91242E00E9499AEF6
:102F8000EAE3F5E08491882341F09091C00095FF39
:102F9000FCCF8093C6003196F5CF6091FA12709104
:102FA000FB128091FC129091FD1242E00E9499AEBA
:102FB000E8E3F5E08491882341F09091C00095FF0B
:102FC000FCCF8093C6003196F5CF0E9486350E94D3
:102FD000C1340C94542F1092A7120C94542F81E0FA
:102FE0008093A7120C94542F85E40E948936811196
:102FF00002C00E94996FBAE26B2EB3E07B2E12EFF3
:10300000A12E12E1B12E09EA802E07E0902ED12CDC
:10301000D3018D913D010E9489368823A9F1B3E047
:10302000DB120AC00E94AF36F50160837183828390
:1030300093830E9408B028C00E94AF36D4012D911E
:103040003D914D915C910E945DC6F5016083718355
:1030500082839383E090FA12F090FB120091FC12AD
:103060001091FD122091F6123091F7124091F81252
:103070005091F9126091F2127091F3128091F41252
:103080009091F5120E941FAFD394F4E0AF0EB11CE3
:1030900024E0820E911C34E0D312BACF0C94542F4A
:1030A0008DE40E948936882311F40C94872E0E94A7
:1030B000AF360E94A1C76237710511F40C94072244
:1030C0000CF0ACC06F31710509F415C5ACF5663173
:1030D000710509F41EC2C4F46131710509F4B1C16E
:1030E00034F46230710508F44EC10C94542F6431ED
:1030F000710509F4B7C10CF008C26231710511F411
:103100000C942A210C94542F6A31710509F43BC2A6
:103110003CF46831710509F419C20CF400C229C2EB
:103120006C31710509F491C20CF43BC26E3171052A
:1031300009F4BEC20C94542F6435710511F40C943B
:103140002A21ACF56035710511F40C94142154F466
:103150006032710509F42EC46A32710509F453C551
:103160000C94542F6235710511F40C94212114F044
:103170000C9425210E94D38F0E94996F129A0E946D
:10318000A56F1092A00D10929F0D68EE73E080E085
:1031900090E00E94AA63269A2E9A10924F028DE523
:1031A00094E00E9494680E94B8680C94542F693689
:1031B000710509F474C52CF56C35710511F40C9486
:1031C0005D216836710509F439C56535710511F061
:1031D0000C94542F83E50E9489360E94AF3620E07C
:1031E00030E04AE754E40E9430BF0E94A6C76093D3
:1031F000AC127093AD128093AE129093AF120C94F8
:10320000542F6B36710511F40C940E210CF4D6C7B3
:103210006D36710509F430C60C94542F6D3D71055F
:1032200011F40C9436250CF04AC06E3B710509F47C
:10323000C7C6FCF46737710509F4A1C064F46337AD
:10324000710511F40C94E3216537710511F40C94A8
:10325000F2210C94542F6937710511F40C94E92272
:1032600014F40C94E5226C38710509F407C50C942C
:10327000542F6C3C710511F40C946D248CF4693C52
:10328000710511F40C942B246B3C710511F40C9412
:103290004E24683C710511F00C94542F0C94962325
:1032A0006E3C710511F40C94EF2414F40C948F24EB
:1032B0006C3D710511F40C9425250C94542F643F3A
:1032C00041E0740711F40C94202C2CF56D3281E050
:1032D000780711F40C940A2864F4623E710511F425
:1032E0000C9447256C32714011F40C945B250C94BE
:1032F000542F6F32B1E07B0711F40C94E42814F4DE
:103300000C94D0286039714011F00C94542F0E9415
:10331000996F0C94542F683522E0720711F40C94C5
:10332000292C94F4663F41E0740711F40C94262C88
:1033300014F40C94232C673F714011F00C94542F1B
:103340000E94B2380C94542F603A93E0790709F444
:103350009CC3673EA3E07A0711F40C94702E6A397F
:10336000724011F00C94542F25EBE22E27E0F22E40
:103370000AE213E033E0D32ED00E0C941525EDE3D2
:10338000F3E00C94F42287E295E00E94946880E5D3
:103390000E948936882339F00E94AF360E94A6C762
:1033A0006B017C0103C0C12CD12C760183E50E9406
:1033B0008936882361F00E94AF3620E030E04AE78A
:1033C00054E40E9430BF0E94A6C76B017C010E949A
:1033D000996F0E94E2636093220D7093230D809396
:1033E000240D9093250DC114D104E104F104F1F0F2
:1033F0000E94E263C60ED71EE81EF91E0E94E26319
:103400006C157D058E059F0530F088E195E00E94E2
:1034100094680C94542F8091E40782FDF6CF0E94AB
:103420007B6D0E94B5A20E94B868E8CF8091E40746
:1034300082FDEBCF0E947B6D0E94B5A20E94B8680E
:10344000F5CF8FE095E00E9494685F988A989FB7C7
:10345000F894809108018E7F809308019FBF129895
:103460000C94542FEFEFF4E08491882341F0909175
:10347000C00095FFFCCF8093C6003196F5CF8091B8
:10348000C00085FFFCCF8AE08093C60010925612E0
:103490001092551240E050E0BA0180E090E10E94A5
:1034A000D23F8BE1E0E0F0E1DE01159601900D9254
:1034B0008A95E1F78091FE0F9091FF0F9C838B839B
:1034C0008EE193E09A838983BE016F5F7F4F88E628
:1034D00094E00E94E65FCE0101960E94F73DE1EF85
:1034E000F4E08491882341F09091C00095FFFCCFD7
:1034F0008093C6003196F5CF8091C00085FFFCCF48
:103500008AE08093C6000C94542F0E94945D0C9422
:10351000542F1092CF0F1092D00F0C94542F009173
:103520000606109107060C5F1F4F6AE270E0C801A3
:103530000E944ACA009719F0FC013197108241E0BD
:1035400061E0C8010E94775A0C94542F8091D00FEB
:10355000882319F081E08093CF0F0E94E26360938B
:1035600075057093760580937705909378050C9494
:10357000542F8091CF0F882311F40C94542F109264
:10358000CF0F0C94542F8091D00F882311F40C94FA
:10359000542F83E50E94893681110C94572F0C9487
:1035A000542F8091D00F882309F439C0EEEDF1E05B
:1035B0008491882341F09091C00095FFFCCF8093C7
:1035C000C6003196F5CF60915012709151128091E2
:1035D0005212909153124AE00E94F89BECEDF1E0F8
:1035E0008491882341F09091C00095FFFCCF809397
:1035F000C6003196F5CF60914812709149128091C2
:103600004A1290914B124AE00E94F89B8091C000B0
:1036100085FFFCCF8AE08093C6000C94542FE0EF26
:10362000F1E08491882341F09091C00095FFFCCF98
:103630008093C6003196F5CF8091C00085FFFCCF06
:103640008AE08093C6000C94542F809106069091D6
:1036500007066AE270E004960E944ACA8C01892B30
:10366000E1F020919D0730919E0740E6429FC00106
:10367000439F900D11246EE470E0835E994F0E9489
:103680004ACA60E270E00E944ACA01969093070617
:1036900080930606F801319710828091060690917A
:1036A000070641E060E004960E94775A0C94542F7C
:1036B0008091D00F882311F40C94542F8BE991E161
:1036C0000E948F3F8BE991E10E940B411092CD0F38
:1036D0001092CE0F80910606909107066AE270E084
:1036E00004960E944ACA8C01892BE1F020919D0723
:1036F00030919E0740E6429FC001439F900D1124E8
:103700006EE470E0835E994F0E944ACA60E270E006
:103710000E944ACA01969093070680930606F80114
:103720003197108200910606109107065801E4E0D7
:10373000AE0EB11C8091D00F882311F40C94542F3D
:103740008BE991E10E940B411092CF0F1D821886E8
:103750001C821B828EE193E09A8389838CEF9FE029
:1037600090931C1080931B10D80114968C918F326B
:1037700009F08FC06FE270E0C5010E944ACA8C0157
:103780000F5F1F4FAAE0EA2EFE0131964F0101158F
:10379000110509F484C06FE270E0C8010E944ACAB2
:1037A0006C01009709F47CC00817190708F078C06D
:1037B0003C01601A710AA301B801CE0180960E94F3
:1037C0006ACAE0E2F0E0EC0FFD1FE60DF71D108283
:1037D0008E01005E1F4FF8018191882339F090918E
:1037E000C00095FFFCCF8093C600F6CF8091C0004B
:1037F00085FFFCCFE092C60060911B1070911C10F9
:103800006115710511F06C5F7F4F21E0AE01405EE4
:103810005F4FCE0105960E94FC46811132C0EAE25C
:10382000F2E08491882371F09091C00095FFFCCF65
:103830008093C6003196F5CF9091C00095FFFCCFE4
:103840008093C600D8018D918D018111F5CFE8E2FA
:10385000F2E08491882341F09091C00095FFFCCF65
:103860008093C6003196F5CF8091C00085FFFCCFD4
:103870008AE08093C600CE0101960E94F73D0C9429
:10388000542F90921C1080921B1086010F5F1F4FC7
:103890007ECF8DE190E190931C1080931B108501E9
:1038A00060911B1070911C106115710511F06C5F17
:1038B0007F4F18A21BA222E0A801CE0180960E9491
:1038C000FC468823F1F0CE0180960E947F9C8823DD
:1038D000C1F06CA57DA58EA59FA541E00E94B8769C
:1038E000882379F0E8A9B0E2EB9FF0011124E655B6
:1038F000F24F309731F085EE80831BA20E947876DC
:10390000F82ECE0180960E94F23DFF2009F1EAE1F7
:10391000F2E08491882341F09091C00095FFFCCFA4
:103920008093C6003196F5CFF8018191882339F054
:103930009091C00095FFFCCF8093C600F6CF109207
:1039400050121092511210925212109253122CC017
:10395000E2E0F2E08491882341F09091C00095FF6D
:10396000FCCF8093C6003196F5CFF8018191882372
:1039700039F09091C00095FFFCCF8093C600F6CF40
:10398000E0E0F2E08491882341F09091C00095FF3F
:10399000FCCF8093C6003196F5CF8091C00085FFA3
:1039A000FCCF8AE08093C600CE0101960E94F73DCD
:1039B0000C94542F8091CF0F81110E94996F009128
:1039C0000606109107060C5F1F4F6AE270E0C801FF
:1039D0000E944ACA7C0161E270E0C8010E944ACAA2
:1039E000009719F08C010F5F1F4FE114F10419F0DB
:1039F000F7013197108280E50E948936F82E809178
:103A00000606909107060817190708F4F12C809113
:103A1000D00F882311F40C94542F41E04F2561E01E
:103A2000C8010E94775A83E50E9489368823B9F03D
:103A300080910606909107068017910780F40E94F6
:103A4000A436AB01BC0140935012509351126093C5
:103A50005212709353128BE991E10E94D23F8091F0
:103A6000D00F882319F081E08093CF0FF1100C94D0
:103A7000542F0E94E26360937505709376058093DE
:103A80007705909378050C94542F809106069091B9
:103A900007066AE270E005960E944ACA8C01892BEB
:103AA000E1F020919D0730919E0740E6429FC001C2
:103AB000439F900D11246EE470E0835E994F0E9445
:103AC0004ACA60E270E00E944ACA019690930706D3
:103AD00080930606F8013197108280910606909136
:103AE000070621E02093CE0F41E060E005960E949A
:103AF000775A0C94542F0E94E26360937905709377
:103B00007A0580937B0590937C0500917505109153
:103B100076052091770530917805601B710B820B3B
:103B2000930B28EE33E040E050E00E9421C6CA012A
:103B3000B9012CE330E040E050E00E9421C67F93C1
:103B40006F933F932F9382EE94E09F938F938E0118
:103B50000F5F1F4F1F930F930E94CBC2E5E4F6E067
:103B600094910FB6F894DEBF0FBECDBFE5E4F6E04A
:103B7000992349F08091C00085FFFCCF9093C60047
:103B800031969491F5CFF8018191882339F0909185
:103B9000C00095FFFCCF8093C600F6CF8091C00097
:103BA00085FFFCCF8AE08093C600C8010E94A96807
:103BB00080917405882311F40C94542F109274058D
:103BC0000091730510E0000F111F0F581A4FD80114
:103BD0006D917C91072E000C880B990B0E9400C3FD
:103BE00020910A0230910B0240910C0250910D027B
:103BF0000E9488C8181614F00C94542FF8011182F2
:103C000010820C94542F83E50E948936882311F486
:103C10000C94542F0E94AF360E94A1C78B0180E5FF
:103C20000E948936882311F40C94542F0F3F1105FC
:103C300009F010F40C94672F0C94542F88E690E050
:103C40000E94FE5981110C94542F83E50E948936FD
:103C5000882311F40C94542F1091A8070E94AF36BA
:103C6000212F30E0220F331F89010F581A4F0E9475
:103C7000A1C7D8016D937C930C94542F83E50E94C7
:103C80008936882311F40C94542F0E94AF360E9479
:103C9000A1C77093A20D6093A10D0C94542F89E6D7
:103CA00090E00E94FE5981110C94542FECEDF4E049
:103CB0008491882341F09091C00095FFFCCF8093C0
:103CC000C6003196F5CFE091A807B4E0EB9FF00174
:103CD0001124ED57F24F608171818281938141E01F
:103CE0000E9499AEE9EDF4E08491882341F090912F
:103CF000C00095FFFCCF8093C6003196F5CFE091D0
:103D0000A807F0E0EE0FFF1FEF58FA4F60817181B6
:103D1000072E000C880B990B0E9400C341E00E9403
:103D200099AEE5EDF4E08491882341F09091C000D4
:103D300095FFFCCF8093C6003196F5CF60917F0D43
:103D40007091800D8091810D9091820D41E00E94D3
:103D500099AEE2EDF4E08491882341F09091C000A7
:103D600095FFFCCF8093C6003196F5CF6091A10DF1
:103D70007091A20D072E000C880B990B0E9400C3B6
:103D800041E00E9499AEEFECF4E08491882341F089
:103D90009091C00095FFFCCF8093C6003196F5CF7F
:103DA00060E070E0CB010E946D9CEDECF4E084914A
:103DB000882341F09091C00095FFFCCF8093C6000E
:103DC0003196F5CF6091830D7091840D8091850DB2
:103DD0009091860D41E00E9499AEEAECF4E0849166
:103DE000882341F09091C00095FFFCCF8093C600DE
:103DF0003196F5CF6091710570917205072E000C18
:103E0000880B990B0E9400C341E00E9499AEE6EC3A
:103E1000F4E08491882341F09091C00095FFFCCF9D
:103E20008093C6003196F5CFE091A807F0E0E25804
:103E3000F24F608170E080E090E00E946D9CE1ECC8
:103E4000F4E08491882341F09091C00095FFFCCF6D
:103E50008093C6003196F5CF60917D0D70E080E0D3
:103E600090E00E946D9C8091C00085FFFCCF8AE0AD
:103E70008093C6000C9411338DE690E00E94FE59A9
:103E800081110C94542F86EB94E00E949468109258
:103E9000740583E50E9489368823A1F01091A80754
:103EA0000E94AF36212F30E0220F331F89010F58B7
:103EB0001A4F0E94A1C7F8017183608381E080934B
:103EC000000217C082E50E948936882391F0109184
:103ED000A8070E94AF36212F30E0220F331F89013F
:103EE0000F581A4F0E94A1C7D8016D937C9310926E
:103EF000000283E50E948936882351F00E94AF3684
:103F000060930A0270930B0280930C0290930D024F
:103F100082E40E948936882351F00E94AF36609374
:103F20005E0270935F02809360029093610286E468
:103F30000E948936882369F00E94AF3660935A0246
:103F400070935B0280935C0290935D0281E08093AA
:103F500074050E94E2634B015C010091A80710E028
:103F6000F801EE0FFF1FEF58FA4F60817181072EA5
:103F7000000C880B990B0E9400C3000F111F000F4B
:103F8000111FF801ED57F24F11E02081318142817C
:103F900053810E9488C818160CF010E010935B053E
:103FA000CC24CA94DC2C7601ABEA2A2EA4E03A2E6B
:103FB000B8EE4B2EB3E05B2E612C712C0C94C72F06
:103FC00080E994E00E94946883E50E948936882302
:103FD00061F00E94AF360E94A1C77093A20D60935A
:103FE000A10D81E0809300020FC082E50E94893616
:103FF000882351F00E94AF360E94A1C77093A20D92
:104000006093A10D109200020E94E2634B015C01DB
:104010006091A10D7091A20D072E000C880B990BD9
:104020000E9400C311E020917F0D3091800D4091DE
:10403000810D5091820D0E9488C818160CF010E076
:1040400010935B050DE814E089E8E82E84E0F82E73
:1040500095E8C92E94E0D92E2AE0722E80915B0556
:104060006091A10D7091A20D882309F480C0072EE4
:10407000000C880B990B0E9400C320917F0D30919A
:10408000800D4091810D5091820D0E9488C81816B4
:104090000CF084C00E94E263DC01CB01881999090D
:1040A000AA09BB09893E9340A105B10508F458C08F
:1040B000E091730524E0E29FF0011124ED57F24FE7
:1040C0006081718182819381F8012491EDE8F4E0AF
:1040D000222349F03091C00035FFFCCF2093C60069
:1040E00031962491F5CF42E00E9499AEF701849178
:1040F000E9E8F4E0882349F09091C00095FFFCCFF7
:104100008093C60031968491F5CF6091730570E07D
:1041100080E090E00E946D9CF6018491E5E8F4E077
:10412000882349F09091C00095FFFCCF8093C60092
:1041300031968491F5CF60917F0D7091800D8091C3
:10414000810D9091820D41E00E9499AE8091C00056
:1041500085FFFCCF7092C6000E94E2634B015C01B8
:104160000E947B6D0E94B5A20E94B86877CF072E8F
:10417000000C880B990B0E9400C320917F0D309199
:10418000800D4091810D5091820D0E94FAC287FFEF
:1041900005C080910002882309F47CCF8BE794E06E
:1041A0000E9494680E94E2636093220D7093230D35
:1041B0008093240D9093250D0C94542F83E50E9439
:1041C0008936882319F10E94AF3620E030E0A9013A
:1041D0000E94FAC287FD0FC00E94AF3620E030E097
:1041E0004FE753E40E9488C8181644F00E94AF3687
:1041F0000E94A1C705C060E070E002C06FEF70E0F0
:104200007093A00D60939F0D0C94542F8FEF90E04E
:104210009093A00D80939F0D0C94542F1092A00D9D
:1042200010929F0D0C94542F269A2E9881E0809323
:104230004F028BE694E00E9494680E94B8680C9448
:10424000542F1092AB120C94542F81E08093AB1238
:104250000C94542F83E50E9489368823A1F00E9494
:10426000AF3620E030E04AE754E40E9430BF0E94BD
:10427000A6C760936602709367028093680290936A
:1042800069020C94542F88E50E94893681110C94A0
:10429000AE3089E50E94893681110C94AE308AE5F2
:1042A0000E94893681110C94AE3085E40E948936D3
:1042B00081110C94AE300C94D330AAE28A2EA3E084
:1042C0009A2E06E213E1B8E5AB2EBDE0BB2E21ED40
:1042D00037E03CAF2BAF312CD4018D914D010E94C2
:1042E0008936882309F45EC0B3E03B1254C00E94B3
:1042F000AF362B013C0120E030E040EA51E40E945F
:10430000FAC287FF41C0A3019201F8016081718167
:10431000828193810E9439C76B017C019B01AC01B2
:104320006091680D7091690D80916A0D90916B0D8F
:104330000E9430BF6093680D7093690D80936A0D81
:1043400090936B0DA7019601D5016D917D918D9193
:104350009C910E9430BFF5016083718382839383B7
:10436000ABADBCAD6D917D918D919C910E94FEC2D3
:10437000A70196010E9430BF0E94A6C7EBADFCAD1D
:104380006083718382839383D8014D925D926D9295
:104390007C92139707C00E94AF36F8016083718347
:1043A0008283938333940C5F1F4FF4E0AF0EB11CF4
:1043B0002BAD3CAD2C5F3F4F3CAF2BAF34E0331205
:1043C0008BCF0C94542FEEE8F3E08491882311F402
:1043D0000C94542F9091C00095FFFCCF8093C600A1
:1043E0003196F3CF00910606109107060B5F1F4F21
:1043F0006AE270E0C8010E944ACA009719F0FC0105
:1044000031971082C8010E94A9680C94542FEBE8E0
:10441000F3E08491882341F09091C00095FFFCCF98
:104420008093C6003196F5CF6091F2127091F3122D
:104430008091F4129091F51242E00E9499AEE7E863
:10444000F3E08491882341F09091C00095FFFCCF68
:104450008093C6003196F5CF6091F6127091F712F5
:104460008091F8129091F91242E00E9499AEE3E82F
:10447000F3E08491882341F09091C00095FFFCCF38
:104480008093C6003196F5CF6091FA127091FB12BD
:104490008091FC129091FD1242E00E9499AEEFE7EC
:1044A000F3E08491882341F09091C00095FFFCCF08
:1044B0008093C6003196F5CF6091FE127091FF1285
:1044C000809100139091011342E00E9499AEE4E7BD
:1044D000F3E08491882341F09091C00095FFFCCFD8
:1044E0008093C6003196F5CF2FB7F8946091E21211
:1044F0007091E3128091E4129091E5122FBF0E9417
:1045000000C3209126133091271340912813509116
:1045100029130E9439C742E00E9499AEE0E7F3E018
:104520008491882341F09091C00095FFFCCF809347
:10453000C6003196F5CF2FB7F8946091E6127091CE
:10454000E7128091E8129091E9122FBF0E9400C3F8
:1045500020912A1330912B1340912C1350912D133D
:104560000E9439C742E00E9499AEECE6F3E08491E4
:10457000882341F09091C00095FFFCCF8093C60046
:104580003196F5CF2FB7F8946091EA127091EB1243
:104590008091EC129091ED122FBF0E9400C32091E8
:1045A0002E1330912F1340913013509131130E94EC
:1045B00039C742E00E9499AE8091C00085FFFCCFD0
:1045C0008AE08093C6000C94542F109209020C9438
:1045D000542F81E0809309020C94542F9091C000D5
:1045E00095FFFCCF8093C60081918111F7CF809118
:1045F000C00085FFFCCF8AE08093C600E4E6F3E0CC
:104600008491882341F09091C00095FFFCCF809366
:10461000C6003196F5CF649903C0EEE2F3E009C01D
:10462000E3E3F3E006C09091C00095FFFCCF8093D8
:10463000C60081918111F7CF8091C00085FFFCCF2A
:104640008AE08093C600ECE5F3E08491882341F092
:104650009091C00095FFFCCF8093C6003196F5CFB6
:104660008091030180FD03C0EEE2F3E009C0E3E3C3
:10467000F3E006C09091C00095FFFCCF8093C60088
:1046800081918111F7CF8091C00085FFFCCF8AE036
:104690008093C600E4E5F3E08491882341F0909193
:1046A000C00095FFFCCF8093C6003196F5CF4B99A3
:1046B00003C0EEE2F3E009C0E3E3F3E006C090914B
:1046C000C00095FFFCCF8093C60081918111F7CF88
:1046D0008091C00085FFFCCF8AE08093C600ECE4A7
:1046E000F3E08491882341F09091C00095FFFCCFC6
:1046F0008093C6003196F5CF4A9903C0EEE2F3E00D
:1047000009C0E3E3F3E006C09091C00095FFFCCF41
:104710008093C60081918111F7CF8091C00085FF01
:10472000FCCF8AE08093C6000C94542F84E40E944E
:104730008936882311F40C94542F0E94AF3620E060
:1047400030E040E05FE30E9430BF6B017C0120E07D
:1047500030E0A9010E94FAC2882379F0A7019601EE
:10476000C701B6010E9430BF2BED3FE049E450E4A1
:104770000E9430BF9B01AC0104C020E030E040E863
:104780005FE3809173058093A80784E5E8962FAFD7
:10479000E897E9963FAFE997EA964FAFEA97EB962D
:1047A0005FAFEB970E948936E8962FADE897E996C0
:1047B0003FADE997EA964FADEA97EB965FADEB9781
:1047C000882399F10E94AF360E94A6C76093A8077C
:1047D000611103C08091A80719C0E5E4F6E0849157
:1047E000882341F09091C00095FFFCCF8093C600D4
:1047F0003196F5CFE8E5F3E08191882359F3909164
:10480000C00095FFFCCF8093C600F6CF9091C0000A
:1048100095FFFCCF8093C6008091C00085FFFCCF40
:104820008AE08093C6000C94542F0091A80784E07E
:10483000089F80011124065D1D4F60E070E080E854
:104840009FE30E9439C7D8016D937D938D939C930C
:1048500013970C94542FE0E4EE2EEDE0FE2E0AE2C6
:1048600013E0F4E0DF2ED00EF80181918F010E9459
:104870008936882351F00E94AF360E94A6C7D7011F
:104880006D937D938D939C931397B4E0EB0EF11C85
:10489000D012EACF0E94EC470C94542F68E5E62E24
:1048A0006DE0F62E0AE213E074E0D72ED00EF80188
:1048B00081918F010E948936882341F00E94AF3692
:1048C000D7016D937D938D939C931397B4E0EB0E7A
:1048D000F11CD012ECCF0C94542F83E50E94893642
:1048E000882351F00E94AF366093740D7093750D5C
:1048F0008093760D9093770D84E50E948936882306
:1049000011F40C94542F0E94AF3660933C0D7093B9
:104910003D0D80933E0D90933F0D0C94542F83E5F5
:104920000E948936882351F00E94AF366093540D5F
:104930007093550D8093560D9093570D84E50E940A
:104940008936882351F00E94AF366093500D7093E2
:10495000510D8093520D9093530D82E40E9489363D
:10496000882361F00E94AF360E94A6C760936A0454
:1049700070936B0480936C0490936D0488E50E949F
:104980008936882351F00E94AF366093700D709382
:10499000710D8093720D9093730D8AE50E94893694
:1049A000882351F00E94AF3660936C0D70936D0DAB
:1049B00080936E0D90936F0D85E40E948936882355
:1049C00011F40C94542F0E94AF366093680D7093CD
:1049D000690D80936A0D90936B0D0C94542F49EAE6
:1049E000E42E47E0F42E0AE213E053E0D52ED00E79
:1049F000F80181918F010E948936882341F00E943D
:104A0000AF36D7016D937D938D939C931397B4E04C
:104A1000EB0EF11CD012ECCF0C94542FB4E0EB0E43
:104A2000F11CD01611F40C94542FF80181918F01D0
:104A30000E948936882391F30E94AF36D7016D9387
:104A40007D938D939C931397E9CF83E50E948936DC
:104A5000882311F40C94542F0E94AF360E94A1C7F2
:104A600070936502609364020C94542F83E50E9456
:104A70008936882311F40C94542F0E94AF360E947B
:104A8000A1C770936302609362020C94542F80E577
:104A90000E948936882311F40C94542F0E94AF365B
:104AA00083E50E948936882311F40C94542F0E94C8
:104AB000AF360C94542F83E50E948936882331F059
:104AC0000E94AF360E94A1C76B0103C09EE6C92EAB
:104AD000D12C80E50E948936882329F00E94AF36C8
:104AE0000E94A1C702C068EE73E04B01770FAA08CD
:104AF000BB081C141D040CF088C280916A02853228
:104B000021F08F3F09F079C204C0E9EEFCE1149175
:104B1000E7C085E280936A02E9EEFCE114911F3F51
:104B200009F46BC2123009F472C04CF5112309F478
:104B300051C0113009F0D4C0109280001092810051
:104B400080918100886080938100809181008160E4
:104B500080938100E2E0FDE0E491F0E0EE0FFF1FC2
:104B6000E755F34F859194919093430580934205C7
:104B7000E8E4FDE0E491E093410511E0B3C01430B6
:104B800009F48BC00CF466C0153009F0A9C010926E
:104B900020011092210180912101886080932101E0
:104BA00080912101816080932101E2E0FDE0E491A8
:104BB000F0E0EE0FFF1FE755F34F8591949190932E
:104BC0003A0580933905E8E4FDE0E491E093380587
:104BD00015E088C014BC15BC84B5826084BD85B561
:104BE000816085BDE2E0FDE0E491F0E0EE0FFF1FA3
:104BF000E755F34F85919491909346058093450531
:104C0000E8E4FDE0E491E093440510E06BC010920D
:104C1000B0001092B1008091B00082608093B0002B
:104C20008091B10081608093B100E2E0FDE0E49109
:104C3000F0E0EE0FFF1FE755F34F859194919093AD
:104C4000C6128093C512E8E4FDE0E491E093C71238
:104C500012E048C010929000109291008091910053
:104C60008860809391008091910081608093910091
:104C7000E2E0FDE0E491F0E0EE0FFF1FE755F34FB7
:104C8000859194919093400580933F05E8E4FDE081
:104C9000E491E0933E0513E025C01092A00010922D
:104CA000A1008091A10088608093A1008091A10063
:104CB00081608093A100E2E0FDE0E491F0E0EE0F7E
:104CC000FF1FE755F34F8591949190933D05809395
:104CD0003C05E8E4FDE0E491E0933B0514E002C00C
:104CE00017FD8BC161E085E20E94A7620D2C000CCC
:104CF000EE08FF08812F8D7F09F0AEC060E072E101
:104D00008AE790E0A70196010E94F3C929013A01C0
:104D1000BA01A90141505109610971094F3F51057B
:104D20006105710509F00CF448C060E472E48FE09D
:104D300090E0A70196010E94F3C9BA01A901415070
:104D40005109610971091230F1F44F3F51056105B4
:104D5000710509F014F40C940E3360E970ED83E0F2
:104D600090E0A70196010E94F3C9BA01A901415040
:104D70005109610971094F3F51056105710509F03C
:104D8000BCF583E062C04F3F510561057105B9F084
:104D9000B4F068E478EE81E090E0A70196010E940B
:104DA000F3C9BA01A90141505109610971091123DF
:104DB00011F40C94B6320C94053381E001C082E00A
:104DC000111143C010C0D301C2012AE0B595A795C7
:104DD000979587952A95D1F7AC01BD0141505109AE
:104DE0006109710985E095B5987F892B85BD8DC0D6
:104DF00068E478EE81E090E0A70196010E94F3C993
:104E0000BA01A90141505109610971094F3F51058A
:104E10006105710509F014F40C94B33264E274EF87
:104E200080E090E0A70196010E94F3C9BA01A901B0
:104E300041505109610971094F3F510561057105E3
:104E400019F014F00C94D83285E09091B100987F5D
:104E5000892B8093B10049C060E072E18AE790E05D
:104E6000A70196010E94F3C9BA01A9014150510955
:104E70006109710941155105E1E06E07710584F082
:104E800068E478EE81E090E0A70196010E94F3C902
:104E9000BA01A901415051096109710983E001C0BA
:104EA00081E0113039F490918100987F892B8093B3
:104EB00081003DC0133039F490919100987F892B87
:104EC000809391005CC0143039F49091A100987FD8
:104ED000892B8093A10068C0153039F4909121018D
:104EE000987F892B8093210174C01230A9F12CF492
:104EF000112359F01130D9F080C0143009F454C096
:104F0000F4F1153009F465C078C047BD8FEF9FEF0D
:104F1000DC018093570590935805A0935905B093F1
:104F20005A0580916E00826080936E0066C0509337
:104F30008900409388008FEF9FEFDC018093530539
:104F400090935405A0935505B093560580916F003A
:104F5000826080936F0051C04093B3008FEF9FEF4A
:104F6000DC018093C8129093C912A093CA12B09327
:104F7000CB12809170008260809370003EC050938D
:104F80009900409398008FEF9FEFDC0180934F05CD
:104F900090935005A0935105B093520580917100F4
:104FA00082608093710029C05093A9004093A800AB
:104FB0008FEF9FEFDC0180934B0590934C05A093FE
:104FC0004D05B0934E05809172008260809372000F
:104FD00014C050932901409328018FEF9FEFDC010B
:104FE0008093470590934805A0934905B0934A05DF
:104FF00080917300826080937300C501B4010E94A8
:10500000AA6385E20E9439B14FC7C501B4010E946D
:10501000AA634AC780E50E948936882351F00E941E
:10502000AF36609356027093570280935802909364
:10503000590289E40E948936882381F00E94AF36A4
:105040002DEB37E346E05EE30E9430BF609303023E
:1050500070930402809305029093060284E40E94F8
:105060008936882381F00E94AF362DEB37E346E086
:105070005EE30E9439C760934702709348028093B1
:10508000490290934A0283E40E948936882351F0B2
:105090000E94AF3660935202709353028093540281
:1050A000909355020E94606FEFE6F3E081918823B0
:1050B00039F09091C00095FFFCCF8093C600F6CFE9
:1050C000E2E7F3E08191882339F09091C00095FFE9
:1050D000FCCF8093C600F6CF6091560270915702C4
:1050E000809158029091590242E00E9499AEE6E701
:1050F000F3E08191882339F09091C00095FFFCCFB7
:105100008093C600F6CF2DEB37E346E05EE3609177
:1051100003027091040280910502909106020E94A0
:1051200039C742E00E9499AEEAE7F3E08191882313
:1051300039F09091C00095FFFCCF8093C600F6CF68
:105140002DEB37E346E05EE3609147027091480241
:105150008091490290914A020E9430BF42E00E9431
:1051600099AEEEE7F3E08191882339F09091C00089
:1051700095FFFCCF8093C600F6CF609152027091EC
:105180005302809154029091550242E00E9499AEE0
:105190008091C00085FFFCCF8AE08093C60084C662
:1051A00083E50E948936882319F00E94AF3603C038
:1051B00060E070E0CB0160932E0270932F02809329
:1051C00030029093310270C685E40E9489368823AC
:1051D00041F00E94AF360E94A1C78B0177FF03C048
:1051E00011C000E010E02A961FAE2A972E961FAE3F
:1051F0002E97F6E16096FFAF609723E464962FAF99
:1052000064970EC02A961FAE2A972E961FAE2E9731
:105210003CE860963FAF609742E464964FAF649776
:1052200083E50E948936882371F00E94AF362A9662
:105230006FAF2A972E967FAF2E9760968FAF6097AD
:1052400064969FAF649783E40E948936882349F06F
:105250000E94AF360E94A1C7E3967FAF6EAFE3977F
:1052600006C085E090E0E3969FAF8EAFE3970E9483
:10527000E26329966CAF7DAF8EAF9FAF2997023066
:1052800011051CF4E2E8F3E01AC0E5E9F3E08191CE
:10529000882339F09091C00095FFFCCF8093C60021
:1052A000F6CF8091C00085FFFCCF8AE08093C600D6
:1052B000FBC59091C00095FFFCCF8093C600819103
:1052C0008111F7CF8091C00085FFFCCF8AE08093E9
:1052D000C6000E94D38F8FE717FF65C080937D0DB6
:1052E00029968CAC9DACAEACBFAC29976B968CAEBE
:1052F0009DAEAEAEBFAE6B97E7968CAE9DAEAEAE3A
:10530000BFAEE7976C961FAE6C9720E4A2962FAFC6
:10531000A2973CE1A3963FAFA39746E4A4964FAF74
:10532000A497A5961FAEA597A6961FAEA697A7967B
:105330001FAEA797A8961FAEA8973FE7832E912C84
:10534000A12CB12C25968CAE9DAEAEAEBFAE2597EE
:105350004FE7442E512C612C712CAF961CAE1DAE24
:105360001EAE1FAEAF9721E0A9962FAFA997A196C9
:105370001FAE1EAEA1971BAE212C312C1FAEA80173
:105380004258524FE1965FAF4EAFE197C801880F88
:10539000991F880F991FDC01AD57B24FAB96BFAF75
:1053A000AEAFAB9707C0F801E258F24F808398CFB9
:1053B0000E94B86880917C0D882309F453C10E9433
:1053C000949217FF0BC080907F0D8BAE2090800DC4
:1053D0003090810D9090820D9FAE0EC0AB96AEAD19
:1053E000BFADAB97BC91BBAFAB96EEADFFADAB978E
:1053F0002180328083808FAE2BAD322D432D5FAD67
:10540000A5966FADA597A6967FADA697A7968FADEB
:10541000A797A8969FADA8970E9488C8181674F001
:105420009BACA5969FAEA597A6962FAEA697A796DE
:105430003FAEA797AFACA896AFAEA8972BAD322DD5
:10544000432D5FAD6C966FAD6C97A2967FADA29722
:10545000A3968FADA397A4969FADA4970E94FAC27E
:1054600087FD0EC0BBAC6C96BFAE6C97A2962FAEFC
:10547000A297A3963FAEA3978FACA4968FAEA497A6
:10548000A9969FACA997992009F475C02A962FADCB
:105490002A972E963FAD2E9760964FAD60976496F3
:1054A0005FAD64976BAD722D832D9FAD0E9488C850
:1054B00018160CF0D7C00E94E263DC01CB012996DC
:1054C0008CAC9DACAEACBFAC299788199909AA09E0
:1054D000BB0989389341A105B10508F4C3C0D301C4
:1054E000C20125968CAC9DACAEACBFAC259788199B
:1054F0009909AA09BB09B595A7959795879517FFAF
:1055000003C080937D0D05C0E196EEADFFADE19740
:1055100080830E94E2636B966CAF7DAF8EAF9FAFCE
:105520006B974B015C0129962CAD3DAD4EAD5FAD47
:105530002997821A930AA40AB50AAF968CAE9DAE3B
:10554000AEAEBFAEAF972A968FAC2A97A5968FAE18
:10555000A5972E969FAC2E97A6969FAEA69760967F
:10556000AFAC6097A796AFAEA7976496BFAC6497B1
:10557000A896BFAEA8972A962FAD2A972E963FAD34
:105580002E9760964FAD609764965FAD64976BAD54
:10559000722D832D9FAD0E94FAC287FD01C0DFC727
:1055A0000E94E263DC01CB016B968CAC9DACAEAC8F
:1055B000BFAC6B9788199909AA09BB09893893412F
:1055C000A105B10508F4CBC70E94E26329966CAF30
:1055D0007DAF8EAF9FAF2997DC01CB018819990968
:1055E000AA09BB09A1968EAC9FACA1971814190407
:1055F0000CF4DFC525968CAD9DADAEADBFAD259746
:10560000840D951DA61DB71DB595A79597958795F2
:1056100017FF9FC780937D0DA1962EAD3FADA1973B
:105620002F5F3F4FA1963FAF2EAFA1972A968FAC29
:105630002A976C968FAE6C972E969FAC2E97A2965B
:105640009FAEA2976096AFAC6097A396AFAEA397BC
:105650006496BFAC6497A496BFAEA49721E0A996C8
:105660002FAFA99720E030E040EA51E42A966FADD1
:105670002A972E967FAD2E9760968FAD6097649691
:105680009FAD64970E945DC69B01AC016BAD722D0E
:10569000832D9FAD0E9488C81816ACF4E7EBF2E0AA
:1056A0008491882341F09091C00095FFFCCF8093B6
:1056B000C6003196F5CF8091C00085FFFCCF8AE00F
:1056C0008093C600F1C30E94E263DC01CB01E79640
:1056D0008CAC9DACAEACBFACE79788199909AA0910
:1056E000BB09813D9740A105B10508F44EC017FFE5
:1056F00010C0E0907D0DF12CE1EBF2E08491882365
:10570000D9F09091C00095FFFCCF8093C6003196F0
:10571000F5CFE196AEADBFADE197EC90F12CEBEAA1
:10572000F2E08491882341F09091C00095FFFCCF76
:105730008093C6003196F5CF42E06BAD722D832D7C
:105740009FAD0E9499AEE7EAF2E08491882341F090
:105750009091C00095FFFCCF8093C6003196F5CFA5
:10576000B701FF0C880B990B0E946D9C8091C000C3
:1057700085FFFCCF8AE08093C6000E94E263E79633
:105780006CAF7DAF8EAF9FAFE7970E94E2636B0176
:105790007C010E94E2636B968CAC9DACAEACBFAC5E
:1057A0006B9729962CAD3DAD4EAD5FAD2997820E1E
:1057B000931EA41EB51EC818D908EA08FB08DC0110
:1057C000CB018C0D9D1DAE1DBF1D81389F44A24194
:1057D000B105A8F0EAE8F2E08491882341F09091C5
:1057E000C00095FFFCCF8093C6003196F5CF809125
:1057F000C00085FFFCCF8AE08093C60055C3A19608
:105800008EAC9FACA197E396AEACBFACE397A81467
:10581000B9040CF0CDCDEEE3F2E08491882341F0A1
:105820009091C00095FFFCCF8093C6003196F5CFD4
:105830008091C00085FFFCCF8AE08093C60034C30E
:105840000E94D13C31C30E94CD3B2EC30E943B3706
:105850002BC3C090F212D090F312E090F412F090AB
:10586000F512C8A2D9A2EAA2FBA20091F6121091E9
:10587000F7122091F8123091F9120CA31DA32EA358
:105880003FA34091FA125091FB126091FC1270916B
:10589000FD1248A759A76AA77BA78091FE12909195
:1058A000FF12A0910013B09101138CA79DA7AEA782
:1058B000BFA7C982DA82EB82FC820D831E832F830D
:1058C000388749875A876B877C878D879E87AF8704
:1058D000B88B85E40E948936882359F00E94AF3640
:1058E0009B01AC016CA57DA58EA59FA50E945DC600
:1058F0000AC020E030E040E050E46CA57DA58EA514
:105900009FA50E945CC66CA77DA78EA79FA720E0DD
:1059100030E040E752E460912602709127028091C6
:105920002802909129020E9439C74B015C01E8A42A
:10593000F9A40AA51BA52CA13DA14EA15FA168A1B8
:1059400079A18AA19BA1E3E7F5E0FF93EF93DE0144
:105950009C966D010E94F94A8AE50E9489360F9053
:105960000F90882329F00E94AF369B01AC0104C040
:1059700020E030E040E251E468A579A58AA59BA526
:105980000E945DC668A779A78AA79BA720E030E0A0
:1059900040E752E46091260270912702809128022C
:1059A000909129020E9439C74B015C01E8A4F9A437
:1059B0000AA51BA52CA13DA14EA15FA168A179A1BB
:1059C0008AA19BA1E3E7F5E0FF93EF93FE01BC966C
:1059D0006F010E94F94A88E50E9489360F900F9066
:1059E000882379F00E94AF369B01AC0168A179A1B0
:1059F0008AA19BA10E945DC668A379A38AA39BA3E9
:105A000008C080E090E0A0E4B0E488A399A3AAA332
:105A1000BBA389E50E948936882339F00E94AF36FE
:105A20006CA37DA38EA39FA308C080E090E0A0E4B8
:105A3000B0E48CA39DA3AEA3BFA320E030E040E779
:105A400052E4609126027091270280912802909181
:105A500029020E9439C74B015C01E8A4F9A40AA5F8
:105A60001BA52CA13DA14EA15FA168A179A18AA18E
:105A70009BA1E3E7F5E0FF93EF93DE019C966D01B8
:105A80000E94F94A8CE40E9489360F900F90882377
:105A900059F00E94AF369B01AC016CA57DA58EA587
:105AA0009FA50E945DC60AC020E030E048EC52E4A9
:105AB0006CA57DA58EA59FA50E945CC66CA77DA741
:105AC0008EA79FA720E030E040E752E460912602D5
:105AD0007091270280912802909129020E9439C773
