:100000000C94220E0C94530E0C94530E0C94530E1D
:100010000C94530E0C94530E0C94530E0C94530EDC
:100020000C94530E0C94530E0C94530E0C94530ECC
:100030000C94530E0C94DEA30C94530E0C94530E9C
:100040000C94530E0C94AB520C94530E0C94530E10
:100050000C94530E0C94530E0C94F84D0C940C37D6
:100060000C94530E0C94530E0C94530E0C94530E8C
:100070000C94530E0C94530E0C94530E0C94530E7C
:100080000C94530E0C94530E0C94530E0C94530E6C
:100090000C945E670C94530E0C94530E0C94530EF8
:1000A0000C94530E0C94530E0C94530E0C94530E4C
:1000B0000C94530E0C94530E0C94530E0C94530E3C
:1000C0000C94530E0C94530E0C94530E0C94530E2C
:1000D0000C94530E0C94530E0C94530E0C94530E1C
:1000E0000C94530EDE34E134D034D434DA34183581
:1000F000E534E934EF34F334F734FD3401350535B4
:1001000018350B350F35133528362D3632363C363B
:100110004636BF365036583660366A3674367E36C6
:100120008D369736BF36A136AB36B536544E634E54
:100130007F4E8E4EA84EB74ED14ED54EDD4E084A5C
:10014000D73B3BCE016E84BCBFFDC12F3D6C7431EB
:100150009ABD56833DDA3D00C77F11BED9E4BB4C42
:100160003E916BAAAABE000000803F05A84CCDB20C
:10017000D44EB93836A9020C50B9918688083CA6ED
:10018000AAAA2ABE000000803F004E414E494E49B7
:100190005459494E46CDCCCC3D0AD7233C17B7D154
:1001A0003877CC2B329595E6241FB14F0A000020FA
:1001B000410000C84200401C4620BCBE4CCA1B0E79
:1001C0005AAEC59D742F005344207072696E7469D5
:1001D0006E67206279746520004E6F74205344204E
:1001E0007072696E74696E67002E0044656C657488
:1001F000696F6E206661696C65642C2046696C6568
:100200003A200046696C652064656C657465643AE3
:10021000002E006F70656E206661696C65642C202D
:1002200046696C653A2000504944204175746F74EA
:10023000756E652066696E69736865642120507506
:100240007420746865204B702C204B6920616E64AB
:10025000204B6420636F6E7374616E747320696EDB
:10026000746F20436F6E66696775726174696F6E33
:100270002E6800504944204175746F74756E652076
:100280006661696C6564212074696D656F757400C1
:1002900020403A006F6B20543A006F6B20423A00C6
:1002A000504944204175746F74756E6520666169AC
:1002B0006C6564212054656D70657261747572653A
:1002C00020746F6F206869676800204B643A2000D3
:1002D000204B693A2000204B703A200020436C618B
:1002E0007369632050494420002054753A2000204F
:1002F0004B753A2000206D61783A2000206D696EC0
:100300003A200020643A200020626961733A20009C
:100310002200556E6B6E6F776E20636F6D6D616E30
:10032000643A2022004368616E67652066696C61EB
:100330006D656E74007A5F6D61783A2000795F6D4B
:1003400061783A2000785F6D61783A2000205A3A4F
:100350000020593A0020436F756E7420583A2000EF
:1003600020453A00205A3A0020593A00583A0046AF
:1003700049524D574152455F4E414D453A4D61728C
:100380006C696E2056313B20537072696E746572D1
:100390002F6772626C206D617368757020666F7272
:1003A0002067656E36204649524D574152455F558C
:1003B000524C3A68747470733A2F2F676974687579
:1003C000622E636F6D2F4572696B5A616C6D2F4D94
:1003D00061726C696E2F2050524F544F434F4C5FE7
:1003E00056455253494F4E3A312E30204D414348E5
:1003F000494E455F545950453A44656C7461426FAB
:10040000742045585452554445525F434F554E54FD
:100410003A3120555549443A303030303030303060
:100420002D303030302D303030302D303030302DD8
:100430003030303030303030303030300A004465C9
:100440006C7461426F74204F66662E0044656C7454
:1004500061426F742072656164792E004265642088
:10046000646F6E652E0020423A0020453A00543AEF
:10047000004265642048656174696E672E004865B6
:100480006174696E6720646F6E652E0020573A00B4
:1004900020453A00543A0048656174696E672E2E13
:1004A0002E002042403A0020403A00202F003A001F
:1004B000205400202F0020423A00202F006F6B2094
:1004C000543A002569206D696E2C202569207365DA
:1004D0006300456E642066696C65206C6973740006
:1004E000426567696E2066696C65206C697374008B
:1004F0004E6F206D6F76652E00526573756D696E57
:1005000067207072696E74005761697420666F723B
:1005100020757365722E2E2E00536C6565702E2E1D
:100520002E002020506C616E6E65724275666665A5
:100530007242797465733A20002046726565204DD9
:10054000656D6F72793A200041707220203620323A
:1005500030313700436F6D70696C65643A20002854
:100560006A63726F63686F6C6C2C204D696E6920D2
:100570004B6F7373656C2900207C20417574686F24
:10058000723A2000417072202036203230313720FC
:1005900032333A33353A313200204C61737420558E
:1005A0007064617465643A2000312E302E30004D45
:1005B00061726C696E0020536F667477617265209A
:1005C000526573657400205761746368646F6720B7
:1005D0005265736574002042726F776E206F757478
:1005E000205265736574002045787465726E616C85
:1005F00020526573657400506F7765725570007393
:1006000074617274004D383420582059205A2045A6
:10061000006563686F3A00256920686F7572732002
:100620002569206D696E7574657300446F6E652071
:100630007072696E74696E672066696C65005354E8
:100640004F505045442E20005072696E74657220E0
:1006500073746F707065642064756520746F2065B5
:1006600072726F72732E20466978207468652065F7
:1006700072726F7220616E6420757365204D393916
:100680003920746F20726573746172742E2028543F
:10069000656D70657261747572652069732072652D
:1006A0007365742E205365742069742061667465C7
:1006B000722072657374617274696E6729006F6B62
:1006C000004E6F204C696E65204E756D626572201C
:1006D0007769746820636865636B73756D2C204C53
:1006E000617374204C696E653A20004E6F20436838
:1006F00065636B73756D2077697468206C696E65CE
:10070000206E756D6265722C204C617374204C698B
:100710006E653A2000636865636B73756D206D6963
:10072000736D617463682C204C617374204C696E26
:10073000653A20004C696E65204E756D62657220C9
:100740006973206E6F74204C617374204C696E6500
:10075000204E756D6265722B312C204C61737420B4
:100760004C696E653A20004572726F723A004D31E5
:100770003130006572726F722077726974696E67CA
:1007800020746F2066696C6500656E6473746F70A9
:1007900073206869743A205A00205A3A00656E64E2
:1007A00073746F7073206869743A20590020593A45
:1007B00000656E6473746F7073206869743A2058B2
:1007C0000020583A00656E6473746F707320686916
:1007D000743A20006563686F3A00446F6E65207359
:1007E0006176696E672066696C652E006F6B004DDF
:1007F00032390053657474696E67732053746F7275
:100800006564002044002049002020204D33303111
:100810002050005049442073657474696E67733AC0
:1008200000205A0020590020204D3636362058002E
:10083000456E6473746F702061646A757374656D5E
:10084000656E7420286D6D293A00205A00205900E9
:1008500020204D323036205800486F6D65206F667D
:100860006673657420286D6D293A00204500205A72
:100870000020580020420020540020204D32303506
:10088000205300416476616E63656420766172690D
:1008900061626C65733A20533D4D696E20666565F3
:1008A000647261746520286D6D2F73292C20543D6E
:1008B0004D696E2074726176656C20666565647240
:1008C00061746520286D6D2F73292C20423D6D6960
:1008D0006E696D756D207365676D656E74207469E2
:1008E0006D6520286D73292C20583D6D6178696DE8
:1008F000756D205859206A65726B20286D6D2F73B5
:10090000292C20205A3D6D6178696D756D205A2023
:100910006A65726B20286D6D2F73292C2020453D50
:100920006D6178696D756D2045206A65726B202850
:100930006D6D2F73290020540020204D323034205B
:100940005300416363656C65726174696F6E3A2030
:10095000533D616363656C65726174696F6E2C20D1
:10096000543D7265747261637420616363656C6584
:10097000726174696F6E00204500205A0020590092
:1009800020204D3230312058004D6178696D756DF1
:1009900020416363656C65726174696F6E20286DB8
:1009A0006D2F7332293A00204500205A002059004B
:1009B00020204D3230332058004D6178696D756DBF
:1009C0002066656564726174657320286D6D2F7390
:1009D000293A00204500205A0020590020204D3996
:1009E0003220580053746570732070657220756EE4
:1009F00069743A0053746F72656420736574746926
:100A00006E6773207265747269657665640048610B
:100A10007264636F6465642044656661756C7420FC
:100A200053657474696E6773204C6F61646564000C
:100A30006563686F3A002200656E717565696E675F
:100A4000202200436172642072656D6F76656400D8
:100A50004361726420696E7365727465640000009E
:100A60002100240027002A002D003000330001015E
:100A70000000040107010A010000220025002800EF
:100A80002B002E0031003400020100000501080196
:100A90000B01000020002300260029002C002F005D
:100AA00032000001000003010601090105050505EA
:100AB000070508080808020202020A0A08080404D6
:100AC0000404010101010101010103030303030304
:100AD0000303040707070C0C0C0C0C0C0C0C020293
:100AE000020206060606060606060B0B0B0B0B0B90
:100AF0000B0B01021020200808102040102040801D
:100B000002010201080402010102040810204080D1
:100B1000804020100804020180040201804020105F
:100B200008040201080402010102040810204080A8
:100B3000010204081020408000000A0B02090C0D7D
:100B40000E08070304010000000000000000000080
:100B50000000000000000000000000000000000095
:100B60000000000012111000000000000000000052
:100B700000000000000000000000000000004D32F6
:100B800034004D3233202573006175746F25692E52
:100B9000670053442063617264206F6B006F70655F
:100BA0006E526F6F74206661696C656400766F6C5D
:100BB000756D652E696E6974206661696C65640087
:100BC000534420696E6974206661696C00577269CC
:100BD00074696E6720746F2066696C653A20002E18
:100BE000006F70656E206661696C65642C204669D3
:100BF0006C653A20002E006F70656E206661696C2E
:100C000065642C2046696C653A200046696C652055
:100C100073656C6563746564002053697A653A2076
:100C20000046696C65206F70656E65643A20002E21
:100C3000006F70656E206661696C65642C20466982
:100C40006C653A20004E6F77206672657368206687
:100C5000696C653A20004E6F7720646F696E67207B
:100C600066696C653A20002220706F730022207044
:100C70006172656E743A2200535542524F55544981
:100C80004E452043414C4C207461726765743A2292
:100C9000006563686F3A00747279696E6720746FDB
:100CA0002063616C6C207375622D67636F646520CF
:100CB00066696C6573207769746820746F6F206D46
:100CC000616E79206C6576656C732E204D415820DD
:100CD0006C6576656C2069733A004572726F723A82
:100CE000004572723A204D415854454D50003A200B
:100CF000457874727564657220737769746368658A
:100D000064206F66662E204D415854454D50207426
:100D100072696767657265642021004572723A20C6
:100D20004D494E54454D50003A20457874727564D3
:100D30006572207377697463686564206F66662ED8
:100D4000204D494E54454D50207472696767657255
:100D500065642021004572726F723A002D2D3A2D84
:100D60002D002D2D2D005344002059000120004D51
:100D7000383420582059205A2045004E6F205344C3
:100D80002063617264005072696E742066726F6DC8
:100D90002053440053746F70207072696E74005257
:100DA0006573756D65207072696E7400506175733E
:100DB00065207072696E7400436F6E74726F6C00A0
:100DC000507265706172650054756E6500496E669B
:100DD0006F2073637265656E0070012C01900127AE
:100DE00001B0012201C0011D01F001180110021320
:100DF0000130020E016002090190020401C002FFED
:100E0000000003FA004003F5008003F000D003EB7C
:100E1000002004E6007004E100E004DC004005D797
:100E200000C005D2004006CD00D006C8008007C330
:100E3000003008BE00F008B900C009B400B00AAF25
:100E400000B00BAA00D00CA500000EA000500F9B14
:100E500000C01096005012910000148C00C015873D
:100E600000B0178200B0197D00D01B7800001E73FF
:100E70000040206E0090226900F024640040275F4B
:100E80000090295A00E02B5500102E500020304BC6
:100E90000010324600E033410090353C00103737F7
:100EA0000070383200A0392D00B03A2800A03B2352
:100EB00000603C1E00103D1900903D1400103E0FD4
:100EC00000703E0A00C03E0500003F000024F4D43C
:100ED0003050C38E20C2A24017828B7011127A91BB
:100EE0000D816CD90AA861E108C7586607615143B2
:100EF000061E4B5D05C145A7041A411104093D9822
:100F000003713931034036DB0265339102D430542A
:100F100002802E1D02632CEE01752AC501B028A0A7
:100F200001102781018F2564012B244B01E022341D
:100F300001AC211F018D200D01801FFC00841EEDDE
:100F400000971DDF00B81CD200E61BC600201BBCAA
:100F500000641AB200B219A8000A19A0006A189910
:100F600000D117910040178B00B516840031167E12
:100F700000B31579003A157300C7146F0058146A4E
:100F800000EE1366008813630025135E00C7125B32
:100F9000006C12570015125400C111510070114F0E
:100FA0000021114B00D61049008D10470046104417
:100FB0000002104200C00F4000800F3E00420F3C74
:100FC00000060F3B00CB0E3800930E37005C0E3549
:100FD00000270E3400F30D3200C10D3100900D30AA
:100FE00000600D2E00320D2D00050D2C00D90C2BAC
:100FF00000AE0C2900850C29005C0C2700350C275D
:10100000000E0C2600E80B2400C40B2400A00B23C8
:10101000007D0B23005A0B2100390B2100180B20F7
:1010200000F80A1F00D90A1E00BB0A1E009D0A1DF7
:1010300000800A1D00630A1C00470A1B002C0A1BC3
:1010400000110A1A00F7091A00DD091900C409196C
:1010500000AB091900920917007B091800630917F2
:10106000004C09160036091600200916000A091559
:1010700000F5081500E0081400CC081400B80814A6
:1010800000A4081400900813007D0812006B0813D8
:1010900000580812004608120034081100230811F5
:1010A000001208110001081100F0071000E00710FD
:1010B00000D0071000C0071000B0070F00A10710F4
:1010C0000091070E0083070F0074070F0065070EDD
:1010D0000057070E0049070E003B070D002E070EB4
:1010E0000020070D0013070D0006070D00F9060C80
:1010F00000ED060D00E0060C00D4060C00C8060C3E
:1011000000BC060C00B0060C00A4060B0099060CEF
:10111000008D060B0082060B0077060B006C060B99
:101120000061060A0057060B004C060A0042060A38
:101130000038060A002E060A0024060A001A060ACB
:10114000001006090007060A00FD050900F405095C
:1011500000EB050900E2050900D9050900D00509E1
:1011600000C7050900BE050900B5050800AD050862
:1011700000A50509009C050800940508008C0508D9
:1011800000840508007C050800740508006C05074C
:1011900000650508005D050700560508004E0507B7
:1011A000004705070040050800380507003105071E
:1011B000002A050700230507001C05060016050781
:1011C000000F0507000805060002050700FB0406DE
:1011D00000F5040700EE040600E8040600E2040738
:1011E00000DB040600D5040600CF040600C904068F
:1011F00000C3040600BD040600B7040600B10405E0
:1012000000AC040600A6040600A00405009B04062A
:101210000095040500900406008A04050085040575
:1012200000800406007A04050075040500700405BA
:10123000006B04050066040500610405005C0405FC
:101240000057040500520405004D0405004804053C
:1012500000430405003E0404003A0405003504057B
:1012600000300404002C04050027040400230405B6
:10127000001E0404001A04040016040500110404EE
:10128000000D040400090405000404040000040423
:1012900000FC030400F8030400F4030400F003045A
:1012A00000EC030400E8030400E4030400E003048A
:1012B00000DC030400D8030400D4030400D00304BA
:1012C00000CC030400C8030300C503030024F40496
:1012D000D9201BC40C5C0E9804C4095F0265077119
:1012E00001F405F900FB04B30048048700C1036959
:1012F000005803550003034500BE023A0084023142
:101300000053022A002902250004022000E4011CE7
:1013100000C8011900AF01170098011400840113DF
:1013200000710110006101100051010E0043010D18
:101330000036010B002B010B0020010B00150109E9
:10134000000C01090003010800FB000800F300087D
:1013500000EB000700E4000600DE000600D80006EF
:1013600000D2000600CC000500C7000500C2000541
:1013700000BD000400B9000400B5000400B1000481
:1013800000AD000400A9000400A5000300A20003B2
:10139000009F0004009B00030098000300950002DA
:1013A0000093000300900003008D0002008B0003F7
:1013B0000088000200860002008400030081000211
:1013C000007F0002007D0002007B00020079000225
:1013D0000077000100760002007400020072000134
:1013E00000710002006F0002006D0001006C00023D
:1013F000006A000100690002006700010066000148
:10140000006500010064000200620001006100014B
:1014100000600001005F0002005D0001005C00014F
:10142000005B0001005A0001005900010058000152
:101430000057000100560001005500010054000152
:101440000053000000530001005200010051000150
:1014500000500001004F0001004E0000004E00014E
:10146000004D0001004C0001004B0000004B00014A
:10147000004A000100490001004800000048000146
:101480000047000100460000004600010045000042
:10149000004500010044000100430000004300013A
:1014A0000042000000420001004100000041000134
:1014B00000400001003F0000003F0001003E00002E
:1014C000003E0001003D0000003D0001003C000026
:1014D000003C0000003C0001003B0000003B00011C
:1014E000003A0000003A0001003900000039000114
:1014F000003800000038000000380001003700000C
:101500000037000100360000003600000036000100
:1015100000350000003500000035000100340000F7
:1015200000340000003400010033000000330000EC
:1015300000330001003200000032000000320001E0
:1015400000310000003100000031000100300000D7
:101550000030000000300001002F0000002F0000CC
:10156000002F0000002F0001002E0000002E0000C0
:10157000002E0001002D0000002D0000002D0000B5
:10158000002D0001002C0000002C0000002C0000A9
:10159000002C0001002B0000002B0000002B00009D
:1015A000002B0001002A0000002A0000002A000091
:1015B000002A000100290000002900000029000085
:1015C0000029000000290001002800000028000078
:1015D000002800000028000000280001002700006B
:1015E000002700000027000000270000002700015E
:1015F0000026000000260000002600000026000053
:101600000026000100250000002500000025000044
:101610000025000000250000002500010024000036
:101620000024000000240000002400000024000129
:10163000002300000023000000230000002300001E
:10164000002300000023000000230001002200000E
:101650000022000000220000002200000022000002
:1016600000220001002100000021000000210000F4
:1016700000210000002100000021000000210001E5
:1016800000200000002000000020000000200000DA
:1016900000200000002000000020000000200001C9
:1016A000001F0000001F0000001F0000001F0000BE
:1016B000001F0000001F0000001F0001001E0000AE
:1016C000001E0000001E0000001E000000202D2053
:1016D000496E76616C6964206578747275646572B0
:1016E000206E756D6265722021004D6F7665203029
:1016F0002E316D6D004D6F766520316D6D004D6F33
:1017000076652031306D6D005072657061726500D4
:10171000526573746F7265206661696C736166658A
:10172000004C6F6164206D656D6F72790053746F4A
:101730007265206D656D6F7279004D6F74696F6EA3
:101740000054656D7065726174757265004D6169F4
:101750006E00507265686561742041425320636F6A
:101760006E66005072656865617420504C4120635C
:101770006F6E66005049442D43005049442D43008C
:101780005049442D44005049442D44005049442DB3
:1017900049005049442D49005049442D50005049BA
:1017A000442D500020022046616374002002204630
:1017B000616374002002204D6178002002204D6199
:1017C00078002002204D696E002002204D696E00D5
:1017D0004F6666004F6E20004F6666004F6E200019
:1017E00046616E2073706565640046616E2073709B
:1017F000656564004E6F7A7A6C65004E6F7A7A6C1C
:101800006500436F6E74726F6C0053746F72652065
:101810006D656D6F7279004E6F7A7A6C65004E6FF0
:101820007A7A6C650046616E207370656564004667
:10183000616E2073706565640054656D70657261DA
:101840007475726500526573656E643A20006F6B43
:10185000004B494C4C45442E20005072696E746513
:10186000722068616C7465642E206B696C6C282929
:101870002063616C6C6564210053544F50504544A3
:101880002E20005072696E7465722073746F7070D0
:1018900065642064756520746F206572726F727361
:1018A0002E2046697820746865206572726F7220F8
:1018B000616E6420757365204D39393920746F204D
:1018C000726573746172742E202854656D70657230
:1018D00061747572652069732072657365742E205A
:1018E0005365742069742061667465722072657333
:1018F00074617274696E6729000000A0420000A044
:1019000042000043430000A0C20000A0C20000004B
:10191000000000000000000000000043430000A0A1
:10192000400000A0400000A0400000204300002034
:1019300043000043430101012200656E7175656932
:101940006E6720220020746F6F206C6F6E672065B9
:101950007874727573696F6E2070726576656E74D7
:1019600065640020636F6C642065787472757369B8
:101970006F6E2070726576656E746564006563686D
:101980006F3A0053746F7265206D656D6F727900E8
:101990004E6F7A7A6C65004E6F7A7A6C650046619C
:1019A0006E2073706565640046616E2073706565B6
:1019B000640054656D70657261747572650045737D
:1019C000746570732F6D6D004573746570732F6D42
:1019D0006D005A73746570732F6D6D005A73746562
:1019E00070732F6D6D005973746570732F6D6D007A
:1019F0005973746570732F6D6D00587374657073CF
:101A00002F6D6D005873746570732F6D6D00412DCF
:101A10007265747261637400412D726574726163E2
:101A20007400416D6178206500416D61782065002A
:101A3000416D6178207A00416D6178207A00416DB6
:101A40006178207900416D6178207900416D61787D
:101A5000207800416D6178207800565472617620BC
:101A60006D696E005654726176206D696E00566D18
:101A7000696E00566D696E00566D6178206500567E
:101A80006D6178206500566D6178207A00566D6131
:101A900078207A00566D6178207900566D61782043
:101AA0007900566D6178207800566D617820780055
:101AB00056652D6A65726B0056652D6A65726B00FE
:101AC000567A2D6A65726B00567A2D6A65726B00C4
:101AD0005678792D6A65726B005678792D6A657231
:101AE0006B00416363656C00416363656C00436F29
:101AF0006E74726F6C004D363030004368616E67F3
:101B0000652066696C616D656E7400466C6F770068
:101B1000466C6F770046616E2073706565640046A1
:101B2000616E207370656564004E6F7A7A6C650033
:101B30004E6F7A7A6C65005370656564005370650A
:101B40006564004D61696E004D6F7665206178694E
:101B500073004D38300053776974636820706F7775
:101B60006572206F6E004D38310053776974636879
:101B700020706F776572206F666600436F6F6C64CC
:101B80006F776E0050726568656174204142530042
:101B90005072656865617420504C410047323800CE
:101BA0004175746F20686F6D65004D38340044696D
:101BB0007361626C65207374657070657273004D3B
:101BC00061696E00580059005A0045787472756456
:101BD0006572004578747275646572004D6F766544
:101BE000205A004D6F76652059004D6F766520585C
:101BF000004D6F76652061786973007C3C3E5E2BFA
:101C00003D3F2F5B5D3B2C2A225C004D3234004D62
:101C100032332025730043616E6E6F7420656E74DD
:101C20006572207375626469723A2000052E2E0079
:101C30004D61696E00024175746F74656D700000CE
:101C4000A6AD85AD11241FBECFEFD1E2DEBFCDBF63
:101C500000E00CBF14E0A0E0B2E0ECE7F3E701E045
:101C60000BBF02C007900D92A234B107D9F722E151
:101C7000A2E4B4E001C01D92A131B207E1F71EE079
:101C8000C1E2DEE000E006C021970109802FFE01DD
:101C90000E9443B9C032D10780E00807A9F70E942B
:101CA0003DA40C94ADB90C9400002F923F924F923A
:101CB0005F926F927F928F929F92AF92BF92CF92DC
:101CC000DF92EF92FF920F931F93CF93DF93CDB7E5
:101CD000DEB7C057D1090FB6F894DEBF0FBECDBF37
:101CE00087E40E94062DF82E882309F4AAC30E94D7
:101CF0002C2D0E94D5B66430710509F40BC354F441
:101D00006230710509F4F3C20CF0F9C277FF62C1C9
:101D10000C94CC286A35710509F442C30CF050C10B
:101D20006C31710511F00C94CC288091590290917E
:101D30005A02A0915B02B0915C0280936C04909374
:101D40006D04A0936E04B0936F0480916302909130
:101D5000640290936B0480936A0484E690E090930D
:101D60006402809363020E9400376093D70C7093E3
:101D7000D80C8093D90C9093DA0C81E080930902FF
:101D80008091C7119091C811A091C911B091CA1149
:101D900080935D0C90935E0CA0935F0CB093600CED
:101DA0008091CB119091CC11A091CD11B091CE1119
:101DB0008093610C9093620CA093630CB093640CBD
:101DC0008091CF119091D011A091D111B091D211E9
:101DD0008093650C9093660CA093670CB093680C8D
:101DE0008091D3119091D411A091D511B091D611B9
:101DF0008093690C90936A0CA0936B0CB0936C0C5D
:101E00001092590210925A0210925B0210925C02D8
:101E10001092C7111092C8111092C9111092CA11D4
:101E20001092CB111092CC111092CD111092CE11B4
:101E30001092CF111092D0111092D1111092D21194
:101E40004FEC51E16BEC71E187EC91E10E94C9A18B
:101E500080E090E4A2E1B4E480935D0C90935E0C8A
:101E6000A0935F0CB093600C8093610C9093620C14
:101E7000A093630CB093640C8093650C9093660CF4
:101E8000A093670CB093680C86E696EEA1E0B5E4EB
:101E90008093590290935A02A0935B02B0935C0224
:101EA00085E8C82E84E0D82E1CE5E12E1FE8F12E2F
:101EB0000AE012E429E63CE045E65CE061E67CE00D
:101EC0008DE59CE00E9411750E948C5210922E05A7
:101ED00010922D0510922C0580915D0C90915E0C56
:101EE000A0915F0CB091600C8093C7119093C811C2
:101EF000A093C911B093CA118091610C9091620CAA
:101F0000A091630CB091640C8093CB119093CC1191
:101F1000A093CD11B093CE118091650C9091660C79
:101F2000A091670CB091680C8093CF119093D01161
:101F3000A093D111B093D21180E090E00E9402688A
:101F400081E090E00E94026882E090E00E940268D6
:101F500087EC91E10E94666C43EE5CE06FED7CE003
:101F60008BED9CE00E94C9A11092090280916C0443
:101F700090916D04A0916E04B0916F04809359020A
:101F800090935A02A0935B02B0935C0280916A0422
:101F900090916B0490936402809363020E940037D7
:101FA0006093D70C7093D80C8093D90C9093DA0C73
:101FB00010922E0510922D0510922C050C94CC2811
:101FC0006B35710509F4F0C16C35710509F4F1C187
:101FD0000C94CC2880911305811189C10E94FA705C
:101FE0008DE59CE00E942A6D0E9400376093D70C1B
:101FF0007093D80C8093D90C9093DA0C9E012F5FCC
:102000003F4F790157ECC52E51E1D52E0DE51CE06F
:10201000D8016D917D918D919D918D01F601219158
:102020003191419151916F010E9490B5D7016D930B
:102030007D938D939D937D01BCE00D361B0741F789
:1020400069817A818B819C818D809E80AF80B884EC
:10205000C984DA84EB84FC849B01AC010E9464AEE9
:102060002B013C01A5019401C501B4010E9464AE9D
:102070009B01AC01C301B2010E9491B54B015C010F
:10208000A7019601C701B6010E9464AE9B01AC0195
:10209000C501B4010E9491B50E94A7B86B017C01F3
:1020A0002DEB37E346E855E30E942EB287FF11C0BF
:1020B000CD84DE84EF84F88820E030E0A901C701F8
:1020C000B6010E94BCB7181624F0F7FAF094F7F89E
:1020D000F0942DEB37E346E855E3C701B6010E94C3
:1020E0002EB287FF02C00C94832C20E030E84BEB2B
:1020F00055E4C701B6010E9464AE209159023091A7
:102100005A0240915B0250915C020E946DB66B01D5
:102110007C018091630290916402BC01990F880B4D
:10212000990B0E9434B29B01AC01C701B6010E9419
:102130006DB620E030E040E253E40E9464AE0E94BD
:10214000D5B65B01161617061CF0AA24A394B12C71
:1021500088248394912C95010B2C000C440B550B77
:1021600021962CAF3DAF4EAF5FAF2197B401092C44
:10217000000C880B990B0E9434B26B017C012196F4
:102180006CAD7DAD8EAD9FAD21970E9434B29B01A9
:10219000AC01C701B6010E946DB62B013C014DE5B3
:1021A0005CE05CAF4BAFCE0101961C0107EC11E186
:1021B000D801CD90DD90ED90FD908D01F101619100
:1021C0007191819191911F01A30192010E9464AECE
:1021D0009B01AC01C701B6010E9491B5ABADBCAD8E
:1021E0006D937D938D939D93BCAFABAFB1E1073DF4
:1021F0001B07F1F68DE59CE00E94666C609163021E
:1022000070916402072E000C880B990B0E9434B267
:102210002091590230915A0240915B0250915C0228
:102220000E9464AE20E030E040E752E40E946DB6C8
:1022300020E030E048EC52E40E946DB625E8C22E62
:1022400024E0D22E7B018C0129E63CE043EE5CE0E9
:102250006FED7CE08BED9CE00E941175EFEF8E1A24
:102260009E0AA814B9040CF081CF80915D0C909166
:102270005E0CA0915F0CB091600C8093C71190939D
:10228000C811A093C911B093CA118091610C9091AB
:10229000620CA091630CB091640C8093CB1190936D
:1022A000CC11A093CD11B093CE118091650C90917B
:1022B000660CA091670CB091680C8093CF1190933D
:1022C000D011A093D111B093D2118091690C90914B
:1022D0006A0CA0916B0CB0916C0C8093D31190930D
:1022E000D411A093D511B093D6110C94832C809166
:1022F0001305811104C00E947F7181E007C08091A5
:102300001305811107C00E947F7180E00E94BC6D9F
:102310000C94832C89E195E00E947D3A80E50E942F
:10232000062D882339F00E942C2D0E94DAB66B010D
:102330007C0103C0C12CD12C760183E50E94062DBF
:10234000882361F00E942C2D20E030E04AE754E41D
:102350000E9464AE0E94DAB66B017C010E948C522E
:102360000E940037C60ED71EE81EF91E0E940037D5
:102370006093D70C7093D80C8093D90C9093DA0C9F
:102380000E9400376C157D058E059F0510F00C949A
:10239000CC280E94AF500E94D06A0E94A13AF0CF90
:1023A0001092370C0C94CC2881E08093370C0C945D
:1023B000CC2885E40E94062D811102C00E948C5217
:1023C000BAEDAB2EB2E0BB2E17ECE12E11E1F12EEF
:1023D00005E4C02E0CE0D02E10E0D5018D915D01FA
:1023E0000E94062D882311F1133051F40E942C2DE8
:1023F000F70160837183828393830E946AA216C06F
:102400000E942C2DD6012D913D914D915C910E9401
:1024100091B5F70160837183828393834FEC51E11F
:102420006BEC71E187EC91E10E94C9A11F5FF4E0C0
:10243000EF0EF11C24E0C20ED11C143071F60C9486
:10244000CC288DE40E94062D882311F40C940128D9
:102450000E942C2D0E94D5B66237710511F40C94A0
:10246000E01B0CF0ACC06F31710509F415C5ACF57B
:102470006631710509F41EC2C4F46131710509F4B5
:10248000B1C134F46230710508F44EC10C94CC280B
:102490006431710509F4B7C10CF008C262317105ED
:1024A00011F40C94FE1A0C94CC286A31710509F4CD
:1024B0003BC23CF46831710509F419C20CF400C246
:1024C00029C26C31710509F491C20CF43BC26E3122
:1024D000710509F4BEC20C94CC286435710511F461
:1024E0000C94FE1AACF56035710511F40C94E81AE1
:1024F00054F46032710509F42EC46A32710509F48E
:1025000053C50C94CC286235710511F40C94F51A5E
:1025100014F00C94F91A0E94D84D0E948C52129A11
:102520000E94995210922E0C10922D0C68EE73E0BE
:1025300080E090E00E94C836269A2E9A109265029A
:102540008EE394E00E947D3A0E94A13A0C94CC283C
:102550006936710509F477C52CF56C35710511F4F0
:102560000C94361B6836710509F43CC56535710558
:1025700011F00C94CC2883E50E94062D0E942C2D8E
:1025800020E030E04AE754E40E9464AE0E94DAB6EC
:1025900060933C0C70933D0C80933E0C90933F0CE9
:1025A0000C94CC286B36710511F40C94E21A0CF4DF
:1025B000D9C76D36710509F433C60C94CC286D3D2E
:1025C000710511F40C94EC1E0CF04AC06E3B7105C1
:1025D00009F4CAC6FCF46737710509F4A1C064F4B4
:1025E0006337710511F40C94BC1B6537710511F448
:1025F0000C94CB1B0C94CC286937710511F40C9406
:10260000C21C14F40C94BE1C6C38710509F40AC584
:102610000C94CC286C3C710511F40C94231E8CF4A2
:10262000693C710511F40C94E11D6B3C710511F4CA
:102630000C94041E683C710511F00C94CC280C9489
:102640004C1D6E3C710511F40C94A51E14F40C94F1
:10265000451E6C3D710511F40C94DB1E0C94CC28C6
:10266000643F31E0730711F40C94D6252CF56D32DC
:1026700051E0750711F40C94C02164F4623E7105B9
:1026800011F40C94FD1E6C32714011F40C94111F66
:102690000C94CC286F32A1E07A0711F40C949A22A2
:1026A00014F40C9486226039714011F00C94CC28FB
:1026B0000E948C520C94CC286835F2E07F0711F40C
:1026C0000C94DE2594F4663F31E0730711F40C940A
:1026D000DC2514F40C94D925673F714011F00C945B
:1026E000CC280E94232F0C94CC28603A83E07807F2
:1026F00009F49CC3673E93E0790711F40C94EA2730
:102700006A39724011F00C94CC2831E5E32E3CE09C
:10271000F32E0AED12E043E0D42ED00E0C94CB1E23
:10272000E5E1F3E00C94CD1C88E095E00E947D3A51
:1027300080E50E94062D882339F00E942C2D0E94EE
:10274000DAB66B017C0103C0C12CD12C760183E584
:102750000E94062D882361F00E942C2D20E030E09D
:102760004AE754E40E9464AE0E94DAB66B017C0131
:102770000E948C520E9400376093D70C7093D80C43
:102780008093D90C9093DA0CC114D104E104F104C4
:10279000F1F00E940037C60ED71EE81EF91E0E94F7
:1027A00000376C157D058E059F0530F089EF94E0AC
:1027B0000E947D3A0C94CC288091C70682FDF6CF0A
:1027C0000E94AF500E94D06A0E94A13AE8CF809147
:1027D000C70682FDEBCF0E94AF500E94D06A0E94D4
:1027E000A13AF5CF80EF94E00E947D3A5F988A98F5
:1027F0009FB7F894809108018E7F809308019FBF56
:1028000012980C94CC28E0EEF4E08491882341F0F7
:102810009091C80095FFFCCF8093CE003196F5CF04
:102820008091C80085FFFCCF8AE08093CE00109293
:1028300094111092931140E050E0BA018EE39FE0B2
:102840000E944B928BE1EEE3FFE0DE0115960190D2
:102850000D928A95E1F780913C0F90913D0F9C83FA
:102860008B838AEF92E09A838983BE016F5F7F4FEB
:1028700084EE93E00E943246CE0101960E943634E7
:10288000E2EDF4E08491882341F09091C80095FF37
:10289000FCCF8093CE003196F5CF8091C80085FFA4
:1028A000FCCF8AE08093CE000C94CC280E94D743C2
:1028B0000C94CC2810920D0F10920E0F0C94CC2873
:1028C00000911805109119050C5F1F4F6AE270E026
:1028D000C8010E947EB9009719F0FC01319710825F
:1028E00041E061E0C8010E94BA400C94CC2880917C
:1028F0000E0F882319F081E080930D0F0E9400379E
:1029000060938704709388048093890490938A0469
:102910000C94CC2880910D0F882311F40C94CC28B2
:1029200010920D0F0C94CC2880910E0F882311F477
:102930000C94CC2883E50E94062D81110C94CF289D
:102940000C94CC2880910E0F882309F439C0E7EC51
:10295000F1E08491882341F09091C80095FFFCCF6D
:102960008093CE003196F5CF60918E1170918F11CA
:1029700080919011909191114AE00E94689BE5EC42
:10298000F1E08491882341F09091C80095FFFCCF3D
:102990008093CE003196F5CF6091861170918711AA
:1029A00080918811909189114AE00E94689B8091E2
:1029B000C80085FFFCCF8AE08093CE000C94CC2821
:1029C000E9EDF1E08491882341F09091C80095FFF2
:1029D000FCCF8093CE003196F5CF8091C80085FF63
:1029E000FCCF8AE08093CE000C94CC28809118050F
:1029F000909119056AE270E004960E947EB98C01FC
:102A0000892BE1F02091AF063091B00640E6429F5D
:102A1000C001439F900D11246EE470E0815D9A4FD8
:102A20000E947EB960E270E00E947EB901969093A8
:102A3000190580931805F8013197108280911805C7
:102A40009091190541E060E004960E94BA400C9410
:102A5000CC2880910E0F882311F40C94CC2889ED9A
:102A600090E10E94089289ED90E10E942E981092C8
:102A70000B0F10920C0F80911805909119056AE2C6
:102A800070E004960E947EB98C01892BE1F02091C0
:102A9000AF063091B00640E6429FC001439F900DC3
:102AA00011246EE470E0815D9A4F0E947EB960E26D
:102AB00070E00E947EB901969093190580931805E5
:102AC000F801319710820091180510911905809135
:102AD0000E0F882311F40C94CC285801B4E0AB0EEF
:102AE000B11C89ED90E10E942E9810920D0F1D826D
:102AF00018861C821B828AEF92E09A8389838AE37C
:102B00009FE090935A0F8093590FF80184818F3280
:102B100009F090C06FE270E0C5010E947EB98C019F
:102B20000F5F1F4FAAE0EA2E9E012F5F3F4F490122
:102B30000115110509F484C06FE270E0C8010E941C
:102B40007EB96C01009709F47CC00817190708F0DA
:102B500078C03C01601A710AA301B801CE018096C9
:102B60000E949EB9E0E2F0E0EC0FFD1FE60DF71DBC
:102B700010828E01005E1F4FF8018191882339F089
:102B80009091C80095FFFCCF8093CE00F6CF809146
:102B9000C80085FFFCCFE092CE006091590F709184
:102BA0005A0F6115710511F06C5F7F4F21E0AE0186
:102BB000405E5F4FCE0105960E943698811132C06B
:102BC000E3E1F2E08491882371F09091C80095FFD1
:102BD000FCCF8093CE003196F5CF9091C80095FF41
:102BE000FCCF8093CE00D8018D918D018111F5CF5E
:102BF000E1E1F2E08491882341F09091C80095FFD3
:102C0000FCCF8093CE003196F5CF8091C80085FF30
:102C1000FCCF8AE08093CE00CE0101960E9436342C
:102C20000C94CC2890925A0F8092590F86010F5F16
:102C30001F4F7ECF8BE59FE090935A0F8093590FE3
:102C400085016091590F70915A0F6115710511F04E
:102C50006C5F7F4F18A21BA222E0A801CE018096D4
:102C60000E9436988823F1F0CE0180960E94EF9B57
:102C70008823C1F06CA57DA58EA59FA541E00E948B
:102C80006B59882379F0E8A9B0E2EB9FF001112499
:102C9000E851F34F309731F085EE80831BA20E94FC
:102CA0002B59F82ECE0180960E943034FF2009F176
:102CB000E3E0F2E08491882341F09091C80095FF11
:102CC000FCCF8093CE003196F5CFF8018191882317
:102CD00039F09091C80095FFFCCF8093CE00F6CFDD
:102CE00010928E1110928F111092901110929111DA
:102CF0002CC0EBEEF1E08491882341F09091C80064
:102D000095FFFCCF8093CE003196F5CFF8018191ED
:102D1000882339F09091C80095FFFCCF8093CE00B6
:102D2000F6CFE9EEF1E08491882341F09091C8005C
:102D300095FFFCCF8093CE003196F5CF8091C800EF
:102D400085FFFCCF8AE08093CE00CE0101960E94E1
:102D500036340C94CC2880910D0F81110E948C5236
:102D600000911805109119050C5F1F4F6AE270E081
:102D7000C8010E947EB97C0161E270E0C8010E9436
:102D80007EB9009719F08C010F5F1F4FE114F10419
:102D900019F0F7013197108280E50E94062DF82E78
:102DA00080911805909119050817190708F4F12C5E
:102DB00080910E0F882311F40C94CC2841E04F250C
:102DC00061E0C8010E94BA4083E50E94062D882375
:102DD000B9F080911805909119058017910780F43A
:102DE0000E94212DAB01BC0140938E1150938F1195
:102DF000609390117093911189ED90E10E944B9234
:102E000080910E0F882319F081E080930D0FF1104F
:102E10000C94CC280E940037609387047093880438
:102E20008093890490938A040C94CC28809118058F
:102E3000909119056AE270E005960E947EB98C01B6
:102E4000892BE1F02091AF063091B00640E6429F19
:102E5000C001439F900D11246EE470E0815D9A4F94
:102E60000E947EB960E270E00E947EB90196909364
:102E7000190580931805F801319710828091180583
:102E80009091190521E020930C0F41E060E0059638
:102E90000E94BA400C94CC280E94003760938B04A7
:102EA00070938C0480938D0490938E04009187041A
:102EB000109188042091890430918A04601B710B61
:102EC000820B930B28EE33E040E050E00E9455B5B2
:102ED000CA01B9012CE330E040E050E00E9455B552
:102EE0007F936F933F932F9383EC94E09F938F9303
:102EF0008E010F5F1F4F1F930F930E94FFB1E1E1FF
:102F0000F6E094910FB6F894DEBF0FBECDBFE1E1BD
:102F1000F6E0992349F08091C80085FFFCCF90939B
:102F2000CE0031969491F5CFF8018191882339F044
:102F30009091C80095FFFCCF8093CE00F6CF809192
:102F4000C80085FFFCCF8AE08093CE00C8010E94B4
:102F5000923A80918604882311F40C94CC28109224
:102F600086040091850410E0000F111F0D571B4FC0
:102F7000D8016D917C91072E000C880B990B0E9453
:102F800034B220910A0230910B0240910C02509110
:102F90000D020E94BCB7181614F00C94CC28F8014E
:102FA000118210820C94CC2883E50E94062D882380
:102FB00011F40C94CC280E942C2D6B017C0180E52F
:102FC0000E94062D882311F40C94CC28C701B60169
:102FD0000E94D5B66F3F710509F010F40C94DF28FC
:102FE0000C94CC2888E690E00E94DA6981110C9458
:102FF000CC2883E50E94062D882311F40C94CC285C
:103000001091440C0E942C2D212F30E0220F331FF1
:1030100089010D571B4F0E94D5B6D8016D937C9343
:103020000C94CC2883E50E94062D882311F40C947F
:10303000CC280E942C2D0E94D5B67093D60C60939C
:10304000D50C0C94CC2889E690E00E94DA698111B5
:103050000C94CC28EDEBF4E08491882341F090911E
:10306000C80095FFFCCF8093CE003196F5CFE0915C
:10307000440CB4E0EB9FF0011124E950F94F60815A
:1030800071818281938141E00E9445A1EAEBF4E0E5
:103090008491882341F09091C80095FFFCCF8093E4
:1030A000CE003196F5CFE091440CF0E0EE0FFF1F1B
:1030B000ED57FB4F60817181072E000C880B990B37
:1030C0000E9434B241E00E9445A1E6EBF4E0849115
:1030D000882341F09091C80095FFFCCF8093CE00EB
:1030E0003196F5CF6091F0067091F1068091F2066D
:1030F0009091F30641E00E9445A1E3EBF4E0849156
:10310000882341F09091C80095FFFCCF8093CE00BA
:103110003196F5CF6091D50C7091D60C072E000C2E
:10312000880B990B0E9434B241E00E9445A1E0EB6C
:10313000F4E08491882341F09091C80095FFFCCF82
:103140008093CE003196F5CF60E070E0CB010E9415
:10315000DD9BEEEAF4E08491882341F09091C80071
:1031600095FFFCCF8093CE003196F5CF6091F706A6
:103170007091F8068091F9069091FA0641E00E945C
:1031800045A1EBEAF4E08491882341F09091C800D6
:1031900095FFFCCF8093CE003196F5CF60918304EC
:1031A00070918404072E000C880B990B0E9434B296
:1031B00041E00E9445A1E7EAF4E08491882341F0D0
:1031C0009091C80095FFFCCF8093CE003196F5CF4B
:1031D000E091440CF0E0EA50F94F608170E080E04B
:1031E00090E00E94DD9BE2EAF4E08491882341F0C4
:1031F0009091C80095FFFCCF8093CE003196F5CF1B
:103200006091F50670E080E090E00E94DD9B809187
:10321000C80085FFFCCF8AE08093CE000C94832CFD
:103220008DE690E00E94DA6981110C94CC2887E940
:1032300094E00E947D3A1092860483E50E94062D58
:103240008823A1F01091440C0E942C2D212F30E0F6
:10325000220F331F89010D571B4F0E94D5B6F8016D
:103260007183608381E08093000217C082E50E9431
:10327000062D882391F01091440C0E942C2D212FB3
:1032800030E0220F331F89010D571B4F0E94D5B626
:10329000D8016D937C931092000283E50E94062D65
:1032A000882351F00E942C2D60930A0270930B0228
:1032B00080930C0290930D0282E40E94062D8823D5
:1032C00051F00E942C2D6093390270933A02809342
:1032D0003B0290933C0286E40E94062D882369F00D
:1032E0000E942C2D60933502709336028093370232
:1032F0009093380281E0809386040E9400374B014E
:103300005C010091440C10E0F801EE0FFF1FED5737
:10331000FB4F60817181072E000C880B990B0E9476
:1033200034B2000F111F000F111FF801E950F94FBF
:1033300011E020813181428153810E94BCB718166F
:103340000CF010E010936904CC24CA94DC2C7601B4
:10335000BCE82B2EB4E03B2E18EE412E13E0512E8C
:10336000612C712C0C943F2981E794E00E947D3AF6
:1033700083E50E94062D882361F00E942C2D0E9477
:10338000D5B67093D60C6093D50C81E08093000283
:103390000FC082E50E94062D882351F00E942C2D3B
:1033A0000E94D5B67093D60C6093D50C1092000293
:1033B0000E9400374B015C016091D50C7091D60CD6
:1033C000072E000C880B990B0E9434B211E020915B
:1033D000F0063091F1064091F2065091F3060E94FA
:1033E000BCB718160CF010E0109369040EE614E058
:1033F0009AE6E92E94E0F92E26E6C22E24E0D22E9B
:103400003AE0732E809169046091D50C7091D60CCE
:10341000882309F480C0072E000C880B990B0E94AA
:1034200034B22091F0063091F1064091F2065091AD
:10343000F3060E94BCB718160CF084C00E94003737
:10344000DC01CB0188199909AA09BB09893E93407F
:10345000A105B10508F458C0E091850424E0E29F7D
:10346000F0011124E950F94F6081718182819381CB
:10347000F8012491EEE6F4E0222349F03091C800EF
:1034800035FFFCCF2093CE0031962491F5CF42E05A
:103490000E9445A1F7018491EAE6F4E0882349F00F
:1034A0009091C80095FFFCCF8093CE003196849117
:1034B000F5CF6091850470E080E090E00E94DD9B94
:1034C000F6018491E6E6F4E0882349F09091C80083
:1034D00095FFFCCF8093CE0031968491F5CF60911B
:1034E000F0067091F1068091F2069091F30641E0AA
:1034F0000E9445A18091C80085FFFCCF7092CE004C
:103500000E9400374B015C010E94AF500E94D06ABC
:103510000E94A13A77CF072E000C880B990B0E94CE
:1035200034B22091F0063091F1064091F2065091AC
:10353000F3060E942EB287FF05C080910002882307
:1035400009F47CCF8CE594E00E947D3A0E9400371C
:103550006093D70C7093D80C8093D90C9093DA0CAD
:103560000C94CC2883E50E94062D882319F10E9433
:103570002C2D20E030E0A9010E942EB287FD0FC063
:103580000E942C2D20E030E04FE753E40E94BCB7AE
:10359000181644F00E942C2D0E94D5B605C060E09C
:1035A00070E002C06FEF70E070932E0C60932D0CF2
:1035B0000C94CC288FEF90E090932E0C80932D0CE0
:1035C0000C94CC2810922E0C10922D0C0C94CC281C
:1035D000269A2E9881E0809365028CE494E00E9404
:1035E0007D3A0E94A13A0C94CC2810923B0C0C948A
:1035F000CC2881E080933B0C0C94CC2883E50E947E
:10360000062D8823A1F00E942C2D20E030E04AE70F
:1036100054E40E9464AE0E94DAB660933D02709357
:103620003E0280933F02909340020C94CC2888E5A0
:103630000E94062D81110C94262A89E50E94062DF0
:1036400081110C94262A8AE50E94062D81110C9482
:10365000262A85E40E94062D81110C94262A0E94B8
:103660008C52129A0E9499520C94CC28BAED8B2E4F
:10367000B2E09B2E0BEF11E181EBA82E8CE0B82E6F
:1036800021E83CE03CAF2BAF312CD4018D914D01B2
:103690000E94062D882309F45EC0B3E03B1254C09B
:1036A0000E942C2D2B013C0120E030E040EA51E447
:1036B0000E942EB287FF41C0A3019201F8016081F0
:1036C0007181828193810E946DB66B017C019B01A7
:1036D000AC016091C10C7091C20C8091C30C9091AF
:1036E000C40C0E9464AE6093C10C7093C20C8093B2
:1036F000C30C9093C40CA7019601D5016D917D91E7
:103700008D919C910E9464AEF501608371838283E8
:103710009383ABADBCAD6D917D918D919C910E94D9
:1037200032B2A70196010E9464AE0E94DAB6EBADF8
:10373000FCAD6083718382839383D8014D925D9247
:103740006D927C92139707C00E942C2DF801608324
:1037500071838283938333940C5F1F4FF4E0AF0E29
:10376000B11C2BAD3CAD2C5F3F4F3CAF2BAF34E0D9
:1037700033128BCF0C94CC28EFE6F3E084918823AE
:1037800011F40C94CC289091C80095FFFCCF809345
:10379000CE003196F3CF00911805109119050B5FFB
:1037A0001F4F6AE270E0C8010E947EB9009719F0CD
:1037B000FC0131971082C8010E94923A0C94CC28E7
:1037C000ECE6F3E08491882341F09091C80095FFE6
:1037D000FCCF8093CE003196F5CF6091C7117091E8
:1037E000C8118091C9119091CA1142E00E9445A16F
:1037F000E8E6F3E08491882341F09091C80095FFBA
:10380000FCCF8093CE003196F5CF6091CB117091B3
:10381000CC118091CD119091CE1142E00E9445A132
:10382000E4E6F3E08491882341F09091C80095FF8D
:10383000FCCF8093CE003196F5CF6091CF1170917F
:10384000D0118091D1119091D21142E00E9445A1F6
:10385000E0E6F3E08491882341F09091C80095FF61
:10386000FCCF8093CE003196F5CF6091D31170914B
:10387000D4118091D5119091D61142E00E9445A1BA
:10388000E5E5F3E08491882341F09091C80095FF2D
:10389000FCCF8093CE003196F5CF2FB7F89460918E
:1038A000B7117091B8118091B9119091BA112FBFD1
:1038B0000E9434B22091FB113091FC114091FD1116
:1038C0005091FE110E946DB642E00E9445A1E1E5D3
:1038D000F3E08491882341F09091C80095FFFCCFDC
:1038E0008093CE003196F5CF2FB7F8946091BB113D
:1038F0007091BC118091BD119091BE112FBF0E949B
:1039000034B22091FF113091001240910112509178
:1039100002120E946DB642E00E9445A1EDE4F3E080
:103920008491882341F09091C80095FFFCCF80934B
:10393000CE003196F5CF2FB7F8946091BF117091FA
:10394000C0118091C1119091C2112FBF0E9434B259
:1039500020910312309104124091051250910612E9
:103960000E946DB642E00E9445A18091C80085FF8B
:10397000FCCF8AE08093CE000C94CC2810920902F0
:103980000C94CC2881E0809309020C94CC2890916F
:10399000C80095FFFCCF8093CE0081918111F7CFB5
:1039A0008091C80085FFFCCF8AE08093CE00E5E4DB
:1039B000F3E08491882341F09091C80095FFFCCFFB
:1039C0008093CE003196F5CF649903C0E6E0F3E032
:1039D00009C0EBE0F3E006C09091C80095FFFCCF72
:1039E0008093CE0081918111F7CF8091C80085FF2F
:1039F000FCCF8AE08093CE00EDE3F3E0849188234E
:103A000041F09091C80095FFFCCF8093CE00319695
:103A1000F5CF8091030180FD03C0E6E0F3E009C02B
:103A2000EBE0F3E006C09091C80095FFFCCF8093D7
:103A3000CE0081918111F7CF8091C80085FFFCCF26
:103A40008AE08093CE00E5E3F3E08491882341F09F
:103A50009091C80095FFFCCF8093CE003196F5CFB2
:103A60008091030181FD03C0E6E0F3E009C0EBE0D3
:103A7000F3E006C09091C80095FFFCCF8093CE0084
:103A800081918111F7CF8091C80085FFFCCF8AE03A
:103A90008093CE000C94CC2884E40E94062D8823C9
:103AA00011F40C94CC280E942C2D20E030E040E052
:103AB0005FE30E9464AE6B017C0120E030E0A9016D
:103AC0000E942EB2882379F0A7019601C701B601A2
:103AD0000E9464AE2BED3FE049E450E40E9464AEE6
:103AE0009B01AC0104C020E030E040E85FE380913E
:103AF00085048093440C84E5AE962FAFAE97AF96C5
:103B00003FAFAF97E0964FAFE097E1965FAFE19799
:103B10000E94062DAE962FADAE97AF963FADAF97F4
:103B2000E0964FADE097E1965FADE197882399F17C
:103B30000E942C2D0E94DAB66093440C611103C0E0
:103B40008091440C19C0E1E1F6E08491882341F0B2
:103B50009091C80095FFFCCF8093CE003196F5CFB1
:103B6000E0E3F3E08191882359F39091C80095FF39
:103B7000FCCF8093CE00F6CF9091C80095FFFCCF8C
:103B80008093CE008091C80085FFFCCF8AE08093AF
:103B9000CE000C94CC280091440C84E0089F800156
:103BA0001124035A1D4F60E070E080E89FE30E94FB
:103BB0006DB6D8016D937D938D939C9313970C9460
:103BC000CC28F9E9EF2EFCE0FF2E0AED12E0A4E08C
:103BD000DA2ED00EF80181918F010E94062D8823E4
:103BE00051F00E942C2D0E94DAB6D7016D937D937F
:103BF0008D939C931397B4E0EB0EF11CD012EACF97
:103C00000E9406720C94CC2871EBE72E7CE0F72E14
:103C10000AED12E0E4E0DE2ED00EF80181918F0172
:103C20000E94062D882341F00E942C2DD7016D9310
:103C30007D938D939C931397B4E0EB0EF11CD012FF
:103C4000ECCF0C94CC2883E50E94062D882351F0FC
:103C50000E942C2D6093CD0C7093CE0C8093CF0CD2
:103C60009093D00C84E50E94062D882311F40C94C7
:103C7000CC280E942C2D6093950C7093960C809309
:103C8000970C9093980C0C94CC2883E50E94062DF9
:103C9000882351F00E942C2D6093AD0C7093AE0CD4
:103CA0008093AF0C9093B00C84E50E94062D88237E
:103CB00051F00E942C2D6093A90C7093AA0C809354
:103CC000AB0C9093AC0C82E40E94062D882361F02B
:103CD0000E942C2D0E94DAB6609342047093430434
:103CE000809344049093450488E50E94062D882320
:103CF00051F00E942C2D6093C90C7093CA0C8093D4
:103D0000CB0C9093CC0C8AE50E94062D882351F0B1
:103D10000E942C2D6093C50C7093C60C8093C70C29
:103D20009093C80C85E40E94062D882311F40C940E
:103D3000CC280E942C2D6093C10C7093C20C8093F0
:103D4000C30C9093C40C0C94CC2855E4E52E5CE095
:103D5000F52E0AED12E063E0D62ED00EF801819127
:103D60008F010E94062D882341F00E942C2DD7013F
:103D70006D937D938D939C931397B4E0EB0EF11CA0
:103D8000D012ECCF0C94CC28B4E0EB0EF11CD01682
:103D900011F40C94CC28F80181918F010E94062D1A
:103DA000882391F30E942C2DD7016D937D938D93E1
:103DB0009C931397E9CF83E50E94062D882311F485
:103DC0000C94CC280E942C2D0E94D5B670936402CE
:103DD000609363020C94CC2883E50E94062D88230F
:103DE00011F40C94CC280E942C2D0E94D5B670930F
:103DF0006202609361020C94CC2880E50E94062D3B
:103E0000882311F40C94CC280E942C2D83E50E9469
:103E1000062D882311F40C94CC280E942C2D0C9490
:103E2000CC2883E50E94062D882331F00E942C2D9A
:103E30000E94D5B66B0103C02EE6C22ED12C80E5C0
:103E40000E94062D882329F00E942C2D0E94D5B6B1
:103E500002C068EE73E04B01770FAA08BB081C1480
:103E60001D040CF088C280916602853221F08F3FDC
:103E700009F079C204C0E5E3FCE11491E7C085E2F2
:103E800080936602E5E3FCE114911F3F09F46BC2E5
:103E9000123009F472C04CF5112309F451C01130ED
:103EA00009F0D4C0109280001092810080918100AE
:103EB000886080938100809181008160809381007F
:103EC000E1EDFAE0E491F0E0EE0FFF1FE858F54F66
:103ED000859194919093510480935004E7E1FBE025
:103EE000E491E0934F0411E0B3C0143009F48BC0A7
:103EF0000CF466C0153009F0A9C010922001109290
:103F0000210180912101886080932101809121010C
:103F1000816080932101E1EDFAE0E491F0E0EE0FA1
:103F2000FF1FE858F54F8591949190934804809332
:103F30004704E7E1FBE0E491E093460415E088C024
:103F400014BC15BC84B5826084BD85B5816085BD17
:103F5000E1EDFAE0E491F0E0EE0FFF1FE858F54FD5
:103F6000859194919093540480935304E7E1FBE08E
:103F7000E491E093520410E06BC01092B0001092F4
:103F8000B1008091B00082608093B0008091B10058
:103F900081608093B100E1EDFAE0E491F0E0EE0F92
:103FA000FF1FE858F54F8591949190939B11809352
:103FB0009A11E7E1FBE0E491E0939C1112E048C024
:103FC00010929000109291008091910088608093EF
:103FD000910080919100816080939100E1EDFAE081
:103FE000E491F0E0EE0FFF1FE858F54F85919491B2
:103FF00090934E0480934D04E7E1FBE0E491E0935D
:104000004C0413E025C01092A0001092A1008091F2
:10401000A10088608093A1008091A10081608093BD
:10402000A100E1EDFAE0E491F0E0EE0FFF1FE858A7
:10403000F54F8591949190934B0480934A04E7E166
:10404000FBE0E491E093490414E002C017FD8BC14A
:1040500061E085E20E94C5350D2C000CEE08FF08DA
:10406000812F8D7F09F0AEC060E072E18AE790E0B9
:10407000A70196010E9427B929013A01BA01A901B5
:1040800041505109610971094F3F510561057105A1
:1040900009F00CF448C060E472E48FE090E0A701FE
:1040A00096010E9427B9BA01A9014150510961093D
:1040B00071091230F1F44F3F51056105710509F0A6
:1040C00014F40C94802C60E970ED83E090E0A7017B
:1040D00096010E9427B9BA01A9014150510961090D
:1040E00071094F3F51056105710509F0BCF583E089
:1040F00062C04F3F510561057105B9F0B4F068E445
:1041000078EE81E090E0A70196010E9427B9BA01FC
:10411000A9014150510961097109112311F40C944D
:104120005E2C0C94552C81E001C082E0111143C03B
:1041300010C0D301C2012AE0B595A7959795879540
:104140002A95D1F7AC01BD014150510961097109AE
:1041500085E095B5987F892B85BD8DC068E478EEA4
:1041600081E090E0A70196010E9427B9BA01A90158
:1041700041505109610971094F3F510561057105B0
:1041800009F014F40C94252C64E274EF80E090E0C4
:10419000A70196010E9427B9BA01A901415051090E
:1041A000610971094F3F51056105710519F014F05E
:1041B0000C94282C85E09091B100987F892B8093F6
:1041C000B10049C060E072E18AE790E0A701960182
:1041D0000E9427B9BA01A901415051096109710929
:1041E00041155105E1E06E07710584F068E478EE51
:1041F00081E090E0A70196010E9427B9BA01A901C8
:10420000415051096109710983E001C081E0113019
:1042100039F490918100987F892B809381003DC073
:10422000133039F490919100987F892B80939100FD
:104230005CC0143039F49091A100987F892B809351
:10424000A10068C0153039F490912101987F892B25
:104250008093210174C01230A9F12CF4112359F07C
:104260001130D9F080C0143009F454C0F4F1153085
:1042700009F465C078C047BD8FEF9FEFDC018093E4
:10428000650490936604A0936704B09368048091DA
:104290006E00826080936E0066C0509389004093E8
:1042A00088008FEF9FEFDC0180936104909362049C
:1042B000A0936304B093640480916F008260809344
:1042C0006F0051C04093B3008FEF9FEFDC018093EC
:1042D0009D1190939E11A0939F11B093A011809176
:1042E00070008260809370003EC0509399004093AC
:1042F00098008FEF9FEFDC0180935D0490935E0444
:10430000A0935F04B09360048091710082608093F9
:10431000710029C05093A9004093A8008FEF9FEF30
:10432000DC018093590490935A04A0935B04B093EA
:104330005C048091720082608093720014C050937C
:104340002901409328018FEF9FEFDC0180935504F2
:1043500090935604A0935704B0935804809173002F
:10436000826080937300C501B4010E94C83685E263
:104370000E949AA311C7C501B4010E94C8360CC798
:1043800080E50E94062D882351F00E942C2D609319
:10439000310270933202809333029093340289E4A5
:1043A0000E94062D882381F00E942C2D2DEB37E3EF
:1043B00046E05EE30E9464AE6093030270930402E1
:1043C000809305029093060284E40E94062D8823C0
:1043D00081F00E942C2D2DEB37E346E05EE30E9436
:1043E0006DB660932302709324028093250290930C
:1043F000260283E40E94062D882351F00E942C2D72
:1044000060932D0270932E0280932F0290933002BE
:104410000E945352E7E4F3E08191882339F09091B0
:10442000C80095FFFCCF8093CE00F6CFEAE4F3E01E
:104430008191882339F09091C80095FFFCCF80933B
:10444000CE00F6CF6091310270913202809133023A
:104450009091340242E00E9445A1EEE4F3E08191A4
:10446000882339F09091C80095FFFCCF8093CE004F
:10447000F6CF2DEB37E346E05EE3609103027091E7
:10448000040280910502909106020E946DB642E0FE
:104490000E9445A1E2E5F3E08191882339F09091F3
:1044A000C80095FFFCCF8093CE00F6CF2DEB37E30D
:1044B00046E05EE360912302709124028091250220
:1044C000909126020E9464AE42E00E9445A1E6E57A
:1044D000F3E08191882339F09091C80095FFFCCFDB
:1044E0008093CE00F6CF60912D0270912E028091C4
:1044F0002F029091300242E00E9445A18091C800B5
:1045000085FFFCCF8AE08093CE0046C683E50E94FB
:10451000062D882319F00E942C2D03C060E070E066
:10452000CB0160937D0C70937E0C80937F0C9093F5
:10453000800C32C685E40E94062D882341F00E943B
:104540002C2D0E94D5B68B0177FD12C002C000E071
:1045500010E02A961FAE2A972B961FAE2B97F6E1F6
:104560002C96FFAF2C9723E42D962FAF2D970EC0DE
:104570002A961FAE2A972B961FAE2B973CE82C96B7
:104580003FAF2C9742E42D964FAF2D9783E50E94C5
:10459000062D882371F00E942C2D2A966FAF2A9742
:1045A0002B967FAF2B972C968FAF2C972D969FAF86
:1045B0002D9783E40E94062D882349F00E942C2D1C
:1045C0000E94D5B6A9967FAF6EAFA99706C085E0C9
:1045D00090E0A9969FAF8EAFA9970E9400372996C9
:1045E0006CAF7DAF8EAF9FAF2997023011051CF4E1
:1045F000EAE5F3E01AC0EDE6F3E08191882339F0B3
:104600009091C80095FFFCCF8093CE00F6CF8091AB
:10461000C80085FFFCCF8AE08093CE00BDC5909195
:10462000C80095FFFCCF8093CE0081918111F7CF18
:104630008091C80085FFFCCF8AE08093CE000E9465
:10464000D84D8FE717FF65C08093F50629968CAC8F
:104650009DACAEACBFAC299765968CAE9DAEAEAEB0
:10466000BFAE6597AD968CAE9DAEAEAEBFAEAD970C
:104670002E961FAE2E9720E468962FAF68973CE1E8
:1046800069963FAF699746E46A964FAF6A976B9613
:104690001FAE6B976C961FAE6C976D961FAE6D97A5
:1046A0006E961FAE6E976FE7862E912CA12CB12CC3
:1046B00025968CAE9DAEAEAEBFAE25977FE7472E5A
:1046C000512C612C712CA5961CAE1DAE1EAE1FAEDA
:1046D000A59721E06F962FAF6F9767961FAE1EAE1E
:1046E00067971BAE212C312C1DAEA8014A50594FA3
:1046F000A7965FAF4EAFA797C801880F991F880F85
:10470000991FDC01A950B94FA196BFAFAEAFA197D9
:1047100007C0F801EA50F94F808398CF0E94A13A70
:104720008091F406882309F453C10E94B84F17FF03
:104730000BC08090F0068BAE2090F1063090F20610
:104740009090F3069DAE0EC0A196AEADBFADA19701
:10475000BC91BBAFA196EEADFFADA1972180328099
:1047600083808DAE2BAD322D432D5DAD6B966FAD3D
:104770006B976C967FAD6C976D968FAD6D976E96BF
:104780009FAD6E970E94BCB7181674F09BAC6B96E9
:104790009FAE6B976C962FAE6C976D963FAE6D97F4
:1047A000ADAC6E96AFAE6E972BAD322D432D5DAD99
:1047B0002E966FAD2E9768967FAD689769968FADF0
:1047C00069976A969FAD6A970E942EB287FD0EC0C8
:1047D000BBAC2E96BFAE2E9768962FAE68976996A3
:1047E0003FAE69978DAC6A968FAE6A976F969FAC15
:1047F0006F97992009F475C02A962FAD2A972B96AA
:104800003FAD2B972C964FAD2C972D965FAD2D97E6
:104810006BAD722D832D9DAD0E94BCB718160CF0A8
:10482000D7C00E940037DC01CB0129968CAC9DAC2F
:10483000AEACBFAC299788199909AA09BB09893878
:104840009341A105B10508F4C3C0D301C201259667
:104850008CAC9DACAEACBFAC259788199909AA0960
:10486000BB09B595A7959795879517FF03C08093CA
:10487000F50605C0A796EEADFFADA79780830E9411
:10488000003765966CAF7DAF8EAF9FAF65974B01DC
:104890005C0129962CAD3DAD4EAD5FAD2997821AD6
:1048A000930AA40AB50AA5968CAE9DAEAEAEBFAE75
:1048B000A5972A968FAC2A976B968FAE6B972B96FF
:1048C0009FAC2B976C969FAE6C972C96AFAC2C97A9
:1048D0006D96AFAE6D972D96BFAC2D976E96BFAE11
:1048E0006E972A962FAD2A972B963FAD2B972C9635
:1048F0004FAD2C972D965FAD2D976BAD722D832DFF
:104900009DAD0E942EB287FD01C09BC70E9400375B
:10491000DC01CB0165968CAC9DACAEACBFAC6597B1
:1049200088199909AA09BB0989389341A105B105DC
:1049300008F487C70E94003729966CAF7DAF8EAF11
:104940009FAF2997DC01CB0188199909AA09BB09F6
:1049500067968EAC9FAC6797181419040CF49BC52E
:1049600025968CAD9DADAEADBFAD2597840D951D43
:10497000A61DB71DB595A7959795879517FF5BC79A
:104980008093F50667962EAD3FAD67972F5F3F4F3B
:1049900067963FAF2EAF67972A968FAC2A972E96D1
:1049A0008FAE2E972B969FAC2B9768969FAE6897ED
:1049B0002C96AFAC2C976996AFAE69972D96BFAC8D
:1049C0002D976A96BFAE6A9721E06F962FAF6F97CB
:1049D00020E030E040EA51E42A966FAD2A972B960A
:1049E0007FAD2B972C968FAD2C972D969FAD2D9745
:1049F0000E9491B59B01AC016BAD722D832D9DADD5
:104A00000E94BCB71816ACF4E0EAF2E08491882367
:104A100041F09091C80095FFFCCF8093CE00319675
:104A2000F5CF8091C80085FFFCCF8AE08093CE004F
:104A3000B3C30E940037DC01CB01AD968CAC9DACBA
:104A4000AEACBFACAD9788199909AA09BB09813DE5
:104A50009740A105B10508F44EC017FF10C0E090C3
:104A6000F506F12CEAE9F2E084918823D9F09091DF
:104A7000C80095FFFCCF8093CE003196F5CFA79666
:104A8000AEADBFADA797EC90F12CE4E9F2E08491D4
:104A9000882341F09091C80095FFFCCF8093CE0011
:104AA0003196F5CF42E06BAD722D832D9DAD0E9406
:104AB00045A1E0E9F2E08491882341F09091C8009B
:104AC00095FFFCCF8093CE003196F5CFB701FF0C58
:104AD000880B990B0E94DD9B8091C80085FFFCCF5D
:104AE0008AE08093CE000E940037AD966CAF7DAF18
:104AF0008EAF9FAFAD970E9400376B017C010E9483
:104B0000003765968CAC9DACAEACBFAC6597299672
:104B10002CAD3DAD4EAD5FAD2997820E931EA41E08
:104B2000B51EC818D908EA08FB08DC01CB018C0DBA
:104B30009D1DAE1DBF1D81389F44A241B105A8F047
:104B4000E3E7F2E08491882341F09091C80095FF5B
:104B5000FCCF8093CE003196F5CF8091C80085FFC1
:104B6000FCCF8AE08093CE0017C367968EAC9FACD3
:104B70006797A996AEACBFACA997A814B9040CF07E
:104B8000CDCDE7E2F2E08491882341F09091C80016
:104B900095FFFCCF8093CE003196F5CF8091C80071
:104BA00085FFFCCF8AE08093CE00F6C20E942933B5
:104BB000F3C20E943E32F0C2DBD7EEC2C090C711F2
:104BC000D090C811E090C911F090CA11C8A2D9A222
:104BD000EAA2FBA20091CB111091CC112091CD1132
:104BE0003091CE110CA31DA32EA33FA34091CF1152
:104BF0005091D0116091D1117091D21148A759A74D
:104C00006AA77BA78091D3119091D411A091D5115F
:104C1000B091D6118CA79DA7AEA7BFA7C982DA8293
:104C2000EB82FC820D831E832F83388749875A8746
:104C30006B877C878D879E87AF87B88B85E4E6D6A8
:104C4000882351F009D79B01AC016CA57DA58EA5E9
:104C50009FA50E9491B50AC020E030E040E050E4FA
:104C60006CA57DA58EA59FA50E9490B56CA77DA77C
:104C70008EA79FA720E030E040E752E46091590200
:104C800070915A0280915B0290915C020E946DB615
:104C9000F5E8CF2EF4E0DF2E7B018C019E01245D30
:104CA0003F4FAE01485D5F4FBE016C5D7F4FCE014F
:104CB00080960E9411758AE5A9D6882321F0CCD66A
:104CC0009B01AC0104C020E030E040E251E468A563
:104CD00079A58AA59BA50E9491B568A779A78AA7FF
:104CE0009BA720E030E040E752E4609159027091C8
:104CF0005A0280915B0290915C020E946DB6E5E8D9
:104D0000CE2EE4E0DE2E7B018C019E01245D3F4F20
:104D1000AE01485D5F4FBE016C5D7F4FCE01809656
:104D20000E94117588E572D6882371F095D69B0193
:104D3000AC0168A179A18AA19BA10E9491B568A349
:104D400079A38AA39BA308C080E090E0A0E4B0E42C
:104D500088A399A3AAA3BBA389E558D6882331F0D9
:104D60007BD66CA37DA38EA39FA308C080E090E0B8
:104D7000A0E4B0E48CA39DA3AEA3BFA320E030E0E9
:104D800040E752E46091590270915A0280915B02AF
:104D900090915C020E946DB655E8C52E54E0D52E68
:104DA0007B018C019E01245D3F4FAE01485D5F4F4A
:104DB000BE016C5D7F4FCE0180960E9411758CE420
:104DC00025D6882351F048D69B01AC016CA57DA562
:104DD0008EA59FA50E9491B50AC020E030E048EC66
:104DE00052E46CA57DA58EA59FA50E9490B56CA7E9
:104DF0007DA78EA79FA720E030E040E752E46091B6
:104E0000590270915A0280915B0290915C020E945B
:104E10006DB645E8C42E44E0D42E7B018C019E0182
:104E2000245D3F4FAE01485D5F4FBE016C5D7F4F1B
:104E3000CE0180960E9411750E948C52129A64E6EF
:104E400070E080E090E00E94C83685E293E00E9426
:104E50008C3A10E08091C70682FD19C01F5F0E9446
:104E6000AF500E94D06A0E94A13A1111F3CF389A34
:104E7000409A63E070E080E090E00E94C83640987D
:104E800063E070E080E090E00E94C836E3CF8CE4FD
:104E9000BDD5882351F0E0D59B01AC016CA57DA563
:104EA0008EA59FA50E9490B50AC020E030E048EC96
:104EB00052E46CA57DA58EA59FA50E9491B56CA717
:104EC0007DA78EA79FA78CA59DA5AEA5BFA5809306
:104ED000D3119093D411A093D511B093D6110E9401
:104EE0006AA220E030E040E752E4609159027091FC
:104EF0005A0280915B0290915C020E946DB635E887
:104F0000C32E34E0D32E7B018C019E01245D3F4FE4
:104F1000AE01485D5F4FBE016C5D7F4FCE01809654
:104F20000E94117520E030E040E752E460915902A0
:104F300070915A0280915B0290915C020E946DB662
:104F40007B018C019E01245D3F4FAE01485D5F4FA8
:104F5000BE016B5F7F4FCE0101960E94117520E06C
:104F600030E040E752E46091590270915A0280911A
:104F70005B0290915C020E946DB67B018C019E01E8
:104F8000245D3F4FAE01475F5F4FBE016B5F7F4FB8
:104F9000CE0101960E94117520E030E040E752E416
:104FA0006091590270915A0280915B0290915C026B
:104FB0000E946DB67B018C019E01235F3F4FAE01C5
:104FC000475F5F4FBE016B5F7F4FCE0101960E942E
:104FD0001175E2C0109213051092C6068091400C24
:104FE0009091410CA091420CB091430C8093140518
:104FF00090931505A0931605B09317050E94D971DB
:10500000CBC084E503D5882309F482C025D50E944E
:10501000DAB66093440C6623A9F1E1E1F6E08491ED
:10502000882341F09091C80095FFFCCF8093CE007B
:105030003196F5CFE7E9F3E08191882339F090913B
:10504000C80095FFFCCF8093CE00F6CF8091440C32
:105050009091C80095FFFCCF8093CE00E9E9F3E082
:105060008191882339F09091C80095FFFCCF8093FF
:10507000CE00F6CF8091C80085FFFCCF8AE08093F8
:10508000CE008AC086E4C2D48823D1F0E5D46B0177
:105090007C016093330C7093340C8093350C9093A7
:1050A000360C20E030E0A9010E94BCB7181644F489
:1050B000C0925902D0925A02E0925B02F0925C02D6
:1050C000E1E1F6E08491882341F09091C80095FFDA
:1050D000FCCF8093CE003196F5CFEAEAF3E08191E0
:1050E000882339F09091C80095FFFCCF8093CE00C3
:1050F000F6CF6091850470E080E090E00E94DD9B37
:105100008091C80085FFFCCF8AE08093CE0044C028
:10511000E1E1F6E08491882341F09091C80095FF89
:10512000FCCF8093CE003196F5CFE2E1F3E084919D
:10513000882341F09091C80095FFFCCF8093CE006A
:105140003196F5CF8091AF069091B00620E6289F6A
:10515000F001299FF00D1124E15DFA4F8191882320
:1051600039F09091C80095FFFCCF8093CE00F6CF28
:10517000E0E1F3E08491882341F09091C80095FF2D
:10518000FCCF8093CE003196F5CF8091C80085FF8B
:10519000FCCF8AE08093CE000E94B171B4C351D499
:1051A000AB01BC0140938E1150938F11609390110D
:1051B0007093911189ED90E10E944B92EDCF4CD408
:1051C000EBCF0E94003797018601005F184D2F4FEB
:1051D0003F4F48015901861A970AA80AB90AC50122
:1051E000B401A30192010E9455B5CA01B9014AE078
:1051F0000E94689B8091C80085FFFCCF8AE0809365
:10520000CE000E9400374B015C010E94AF500E940B
:10521000D06A0E94A13A8091440C2FEFC216D206A8
:10522000E206F20609F0B7C090916904992309F4E7
:105230008BC090E08C01000F111F000F111F09504F
:10524000194F880F991FFC01ED57FB4F6081718149
:10525000072E000C880B990B0E9434B220E030E03E
:1052600040E85FE30E9490B59B01AC01D8016D91CD
:105270007D918D919C910E94BCB787FFBAC00E941E
:105280000037DC01CB0188199909AA09BB09893EBD
:105290009340A105B10508F4B8CFE4E9F4E08491A6
:1052A000882341F09091C80095FFFCCF8093CE00F9
:1052B0003196F5CFE091440C24E0E29FF0011124F7
:1052C000E950F94F608171818281938141E00E94B0
:1052D00045A1E0E9F4E08491882341F09091C80071
:1052E00095FFFCCF8093CE003196F5CF6091440CB2
:1052F00070E080E090E00E94DD9BF1018491ECE899
:10530000F4E0882349F09091C80095FFFCCF80938A
:10531000CE0031968491F5CFFFEFCF16DF06EF0672
:10532000FF0609F04ECFEEE2F3E006C09091C80010
:1053300095FFFCCF8093CE0081918111F7CF8091B2
:10534000C80085FFFCCF5ACF90E08C01000F111FE1
:10535000000F111F0950194F880F991FFC01ED57BD
:10536000FB4F60817181072E000C880B990B0E9406
:1053700034B220E030E040E85FE30E9491B59B0149
:10538000AC01F80160817181828193810E942EB20B
:1053900018167CF574CF90E08C01000F111F000FE0
:1053A000111F0950194F880F991FFC01ED57FB4F32
:1053B00060817181072E000C880B990B0E9434B21A
:1053C0009B01AC01D8016D917D918D919C910E94C2
:1053D00090B50E94D5B697FF07C0909580957095BF
:1053E00061957F4F8F4F9F4F643071058105910507
:1053F00064F00E9400376B017C016F3F7F4F8F4F3D
:105400009F4F09F43CCFF7FC08C00E9400376C198D
:105410007D096031774208F432CF8EE794E00E9434
:105420007D3A0E94003760938704709388048093CC
:10543000890490938A040E9400376093D70C70937C
:10544000D80C8093D90C9093DA0CA6CE0E948C5283
:1054500088E5DCD2882319F05F9A10927E0489E5F2
:10546000D5D2882319F08A9A10927F048AE5CED289
:10547000882351F09FB7F894809108018160809350
:1054800008019FBF1092800485E4C0D2882309F4EC
:1054900083CE129A81CEA5968CAC9DACAEACBFAC3F
:1054A000A597880E991EAA1EBB1EA5962CAD3DADD4
:1054B0004EAD5FADA597281B390B4A0B5B0BCA019C
:1054C000B90125962CAD3DAD4EAD5FAD25970E943F
:1054D00046B5A50194010E9427B9D301C201820FEC
:1054E000931FA41FB51F84319105A105B1050CF1CF
:1054F0002C013D018C3E9105A105B1052CF04BEE30
:10550000442E512C612C712C40E844165104610446
:105510007104FCF08EEF90E0A0E0B0E084199509F2
:10552000A609B70925968CAF9DAFAEAFBFAF259743
:1055300016C034E1432E512C612C712C24E130E053
:1055400040E050E025962CAF3DAF4EAF5FAF2597C2
:1055500006C025964CAE5DAE6EAE7FAE2597E8E0F8
:10556000F3E08491882341F09091C80095FFFCCF2F
:105570008093CE003196F5CFC301B2010E94DD9B2E
:10558000E3E0F3E08491882341F09091C80095FF17
:10559000FCCF8093CE003196F5CF25966CAD7DADD6
:1055A0008EAD9FAD25970E94DD9BECEFF2E08491DC
:1055B000882341F09091C80095FFFCCF8093CE00E6
:1055C0003196F5CF42E02E966FAD2E9768967FAD5F
:1055D000689769968FAD69976A969FAD6A970E94A2
:1055E00045A1E5EFF2E08491882341F09091C80055
:1055F00095FFFCCF8093CE003196F5CF42E06B96BD
:105600006FAD6B976C967FAD6C976D968FAD6D9708
:105610006E969FAD6E970E9445A18091C80085FF50
:10562000FCCF8AE08093CE0067962EAD3FAD6797A2
:10563000233031050CF494C925966CAD7DAD8EAD4B
:105640009FAD25970E9434B220E030E040E850E45E
:105650000E9464AE6B017C012E962FAD2E9768964A
:105660003FAD689769964FAD69976A965FAD6A9747
:105670006B966FAD6B976C967FAD6C976D968FAD9B
:105680006D976E969FAD6E970E9490B520ED3FE0AE
:1056900049E450E40E9464AE20E030E040E05FE383
:1056A0000E9464AE9B01AC01C701B6010E946DB6B9
:1056B0006B017C01C501B4010E9434B220E030E0EE
:1056C0004AE754E40E946DB64B015C01EFEEF2E054
:1056D0008491882341F09091C80095FFFCCF80937E
:1056E000CE003196F5CF42E0C701B6010E9445A138
:1056F000E9EEF2E08491882341F09091C80095FF93
:10570000FCCF8093CE003196F5CF42E0C501B401C5
:105710000E9445A18091C80085FFFCCF8AE080935C
:10572000CE002AE939E949E15FE3C701B6010E94E9
:1057300064AE6B017C019B01AC010E9491B5A50197
:1057400094010E946DB661966CAF7DAF8EAF9FAF36
:105750006197A5019401C701B6010E9464AE20E0E3
:1057600030E040E05EE30E9464AE4B015C01ECED92
:10577000F2E08491882341F09091C80095FFFCCF1E
:105780008093CE003196F5CF8091C80085FFFCCF85
:105790008AE08093CE00E6EDF2E08491882341F028
:1057A0009091C80095FFFCCF8093CE003196F5CF45
:1057B00042E0C701B6010E9445A18091C80085FF63
:1057C000FCCF8AE08093CE00E0EDF2E08491882364
:1057D00041F09091C80095FFFCCF8093CE003196A8
:1057E000F5CF42E061966CAD7DAD8EAD9FAD61971A
:1057F0000E9445A18091C80085FFFCCF8AE080937C
:10580000CE00EAECF2E08491882341F09091C80048
:1058100095FFFCCF8093CE003196F5CF42E0C501D5
:10582000B4010E9445A18091C80085FFFCCF8AE0A9
:105830008093CE0095C8A796EEADFFADA797808365
:10584000A1C86F961FAE6F97C3C884E00C94DB208D
:1058500062E17AE780E090E0A70196010E9427B913
:10586000BA01A90141505109610971094F3F510520
:1058700061057105B9F0B0F0D301C201FAE0B59548
:10588000A79597958795FA95D1F7AC01BD01415041
:10589000510961097109112311F40C94A82087E0C2
:1058A0000C94DB2086E00C9496204F3F5105610557
:1058B000710509F06CF684E00C9496204F3F510579
:1058C00061057105D1F0CCF062E17AE780E090E00B
:1058D000A70196010E9427B9BA01A90141505109B7
:1058E000610971094F3F51056105710519F010F00B
:1058F0000C94992084E00C94A92083E00C94A920B6
:1059000082E00C94DB20C059DF4F0FB6F894DEBF65
:105910000FBECDBFDF91CF911F910F91FF90EF9000
:10592000DF90CF90BF90AF909F908F907F906F90BF
:105930005F904F903F902F900895FC01CB01BA01EA
:105940002491222341F03091C80035FFFCCF2093F1
:10595000CE003196F5CF4AE00C94689BEF92FF920F
:105960001F93CF93DF937C01C62FD72F142F160FD1
:10597000F701808191810E9430B58993F701808180
:1059800091810196918380831C13F2CFDF91CF9197
:105990001F91FF90EF900895EF92FF921F93CF9386
:1059A000DF937C01C62FD72F142F160F6991F701B3
:1059B000808191810E9438B5F701808191810196A3
:1059C000918380831C13F2CFDF91CF911F91FF90C1
:1059D000EF900895CF93DF93EC0160E08E810E94F9
:1059E000963561E08E810E94963560E08E810E943E
:1059F00096358BE891E00197F1F7DF91CF9108950B
:105A0000FC0165917591859194910895682F880F97
:105A1000770B2091AF063091B00640E6429FC0015F
:105A2000439F900D1124815D9A4F0E947EB99C0185
:105A3000909319058093180581E0232B09F480E0E9
:105A4000089580911805909119054AE050E060E0B2
:105A500070E001960C947EB0809118059091190524
:105A600060E070E001960C9418AF2091EE06309142
:105A7000EF06243031050CF069C0BC0120911E05F1
:105A800030911F0540E6429FC001439F900D1124B5
:105A9000815D9A4F0E94AEB1E1E1F6E084918823E6
:105AA00041F09091C80095FFFCCF8093CE003196D5
:105AB000F5CFE8E3FAE08491882341F09091C800A3
:105AC00095FFFCCF8093CE003196F5CF80911E05D7
:105AD00090911F0520E6289FF001299FF00D1124C9
